:100000000C94E6000C940E010C940E010C94320634
:100010000C9432060C9432060C940E010C940E01D2
:100020000C940E010C940E010C940E010C940E0114
:100030000C940E010C940E010C940E010C940E0104
:100040000C94E8050C940E010C947C040C9456045A
:100050000C940E010C940E010C940E010C940E01E4
:100060000C94AC060C940E01D414D914DE14E314D1
:10007000E814ED14F214F714FC140115F815111618
:100080002A1643165C1675168E16A716BD16D316BD
:100090007C1D3E1C611C861CA91CCC1CEF1C121D67
:1000A000351D581DB41E2A1E391E4A1E591E681EB3
:1000B000771E861E951EA41E410EBC0EBC0EBC0EE5
:1000C000BC0EBC0EBC0EBC0EBC0EBC0E440EBC0E58
:1000D000BC0EBC0EBC0EBC0E470E4A0E4D0E500E92
:1000E000530E560E590E5C0E5F0E620E650E680EB4
:1000F000BC0EBC0EBC0EBC0EBC0EBC0EBC0EBC0EB0
:10010000BC0EBC0EBC0EBC0EBC0EBC0EBC0EBC0E9F
:10011000BC0EBC0EBC0EBC0EBC0EBC0EBC0EBC0E8F
:10012000BC0EBC0EBC0EBC0EBC0EBC0EBC0EBC0E7F
:10013000BC0EBC0EBC0EBC0EBC0E6B0E6E0E710E59
:10014000740E770E7A0E7D0E800E830E860E890E4B
:100150008C0E8F0E920E950E980E9B0E9E0EA10E7B
:10016000A40EA70EAA0EAD0EB00EB30EB60E000072
:100170000000240027002A000000000800020100FF
:100180000003040700000000000000000000000061
:10019000250028002B000000000023002600290075
:1001A000040404040404040402020202020203031D
:1001B0000303030301020408102040800102040825
:1001C00010200102040810205E23262311241FBEE4
:1001D000CFEFD8E0DEBFCDBF26E0A8EAB2E001C095
:1001E0001D92AF3DB207E1F712E0A0E0B1E0E6ED0D
:1001F000F1E502C005900D92A83AB107D9F710E0D9
:10020000C5EED0E004C02197FE010E94A026C43EA6
:10021000D107C9F70E9427110C94DE280C94000026
:10022000CF92DF92EF92FF920F931F93CF93DF93C2
:100230006C017A018B01C0E0D0E0CE15DF0589F0BA
:10024000D8016D918D01D601ED91FC910190F08165
:10025000E02DC6010995892B11F47E0102C021967B
:10026000ECCFC701DF91CF911F910F91FF90EF90DD
:10027000DF90CF900895FC01538D448D252F30E001
:10028000842F90E0821B930B541710F0CF960895A3
:1002900001970895FC01918D828D981761F0828DF0
:1002A000DF01A80FB11D5D968C91928D9F5F9F73AA
:1002B000928F90E008958FEF9FEF0895FC01918D4C
:1002C000828D981731F0828DE80FF11D858D90E0B9
:1002D00008958FEF9FEF0895FC01918D228D892F56
:1002E00090E0805C9F4F821B91098F73992708953E
:1002F00086ED95E00E946C0121E0892B09F420E055
:10030000822F0895FC01848DDF01A80FB11DA35A2F
:10031000BF4F2C91848D90E001968F739927848F25
:10032000A689B7892C93A089B1898C9180648C931C
:10033000938D848D981306C00288F389E02D808107
:100340008F7D80830895EF92FF920F931F93CF9339
:10035000DF93EC0181E0888F9B8D8C8D981305C015
:10036000E889F989808185FD24C0F62E0B8D10E087
:100370000F5F1F4F0F731127E02E8C8DE8120CC0FA
:100380000FB607FCFACFE889F989808185FFF5CFA0
:10039000CE010E948201F1CF8B8DFE01E80FF11D8D
:1003A000E35AFF4FF0820B8FEA89FB8980818062DC
:1003B00007C0EE89FF896083E889F98980818064BC
:1003C000808381E090E0DF91CF911F910F91FF90AA
:1003D000EF900895CF93DF93EC01888D8823C9F0C7
:1003E000EA89FB89808185FD05C0A889B9898C913E
:1003F00086FD0FC00FB607FCF5CF808185FFF2CFD9
:10040000A889B9898C9185FFEDCFCE010E94820128
:10041000E7CFDF91CF91089580E090E0892B29F01C
:100420000E94780181110C94000008953FB7F89460
:100430008091F2049091F304A091F404B091F5043A
:1004400026B5A89B05C02F3F19F00196A11DB11D2F
:100450003FBFBA2FA92F982F8827820F911DA11D6A
:10046000B11DBC01CD0142E0660F771F881F991FA7
:100470004A95D1F708952091AA023091AB0228172E
:10048000390771F49091A8028091A902981741F060
:10049000E091A802F0E0E355FB4F808190E00895E1
:1004A0008FEF9FEF089508951F93CF93DF93DC01A3
:1004B0005C962D913C915D972115310539F481E0D1
:1004C00090E013969C938E9312973DC05196ED91B8
:1004D000FC91529750969C915097892F80951FB709
:1004E0005E964C915E9741FB772770F941FD6095D0
:1004F000F8944081772311F0492B01C048234083B1
:10050000E9012197F1F748E0508160FF02C0592BC3
:1005100001C058235083E9012197F1F766954150B6
:1005200099F7772321F090818923808303C080810C
:10053000982B90831FBF5C968D919C915D9701973E
:10054000F1F721E030E0C901DF91CF911F910895CB
:100550002091AA023091AB022817390771F48091DB
:10056000A9022091A80290E0805C9F4F821B910914
:1005700060E470E00E944B26089580E090E00895CA
:100580002091AA023091AB0228173907B9F4909153
:10059000A8028091A902981789F0E091A802F0E0E2
:1005A000E355FB4F80812091A80230E02F5F3F4F41
:1005B0002F7333272093A80290E008958FEF9FEFC9
:1005C000089585ED8093BC008091BC0084FDFCCF34
:1005D0001092610508950E94C028FC0180819181DC
:1005E000009711F00C94762460E070E0CB01089540
:1005F000FC0124813581232B31F421E06115710543
:10060000A1F0FB0108C0FC01808191816115710599
:1006100031F421E0FC018081882339F005C00E947B
:10062000CE2821E0892B09F020E0822F08950F9336
:100630001F93CF93DF93EC0188819981009729F074
:100640002A813B812617370788F48B016F5F7F4F24
:100650000E94F627009761F0998388831B830A83A1
:100660002C813D81232B11F4FC01108281E001C01B
:1006700080E0DF91CF911F910F910895CF93DF9389
:10068000EC0188819981009711F00E945E27198200
:1006900018821D821C821B821A82DF91CF910895DD
:1006A000EF92FF920F931F93CF93DF93EC017B01A7
:1006B0008A01BA010E941703811104C0CE010E9471
:1006C0003E0307C01D830C83B701888199810E9476
:1006D000D728CE01DF91CF911F910F91FF90EF901E
:1006E0000895CF93DF93EC016115710559F0FB017B
:1006F00001900020E9F73197AF01461B570B0E948C
:10070000500302C00E943E03CE01DF91CF910895B5
:10071000CF93DF93EC01FB018617970761F06081AF
:1007200071816115710529F0448155810E94500342
:1007300002C00E943E03CE01DF91CF910895FC01DB
:10074000808191810C945E27FC01118210821382BA
:100750001282158214826115710551F0FB0101901E
:100760000020E9F73197AF01461B570B0C9450035B
:1007700008956115710579F0FB0101900020E9F7FA
:100780003197AF01461B570BDC01ED91FC910280C4
:10079000F381E02D099480E090E008954F925F92FC
:1007A0006F927F92EF92FF920F931F93CF93DF93FD
:1007B000CDB7DEB7A1970FB6F894DEBF0FBECDBFA1
:1007C0007C01FA01CB0119A2223008F42AE08E0143
:1007D0000F5D1F4F422E512C612C712CBF01A301C4
:1007E00092010E945F26F901CA01015011096A3085
:1007F00014F4605D01C0695CD8016C93232B242B39
:10080000252B61F7B801C7010E94B903A1960FB665
:10081000F894DEBF0FBECDBFDF91CF911F910F9136
:10082000FF90EF907F906F905F904F900895CF92E0
:10083000DF92EF92FF920F931F93CF93DF93EC0120
:100840006A017B01E881F9810190F081E02D6DE280
:1008500009958C0144275527BA014C195D096E0989
:100860007F092AE0CE010E94CE03800F911FDF9105
:10087000CF911F910F91FF90EF90DF90CF9008954F
:100880000F931F93CF93DF93EC010E94B9038C0168
:1008900065E172E0CE010E94B903800F911FDF91E4
:1008A000CF911F910F9108950C94B9031F920F924D
:1008B0000FB60F9211242F933F934F935F936F9333
:1008C0007F938F939F93AF93BF93EF93FF9386EDA7
:1008D00095E00E948201FF91EF91BF91AF919F91AE
:1008E0008F917F916F915F914F913F912F910F90D9
:1008F0000FBE0F901F9018951F920F920FB60F9278
:1009000011242F938F939F93EF93FF93E091E6052C
:10091000F091E7058081E091EC05F091ED0582FD15
:1009200012C090818091EF058F5F8F732091F00549
:10093000821751F0E091EF05F0E0EA52FA4F958FFF
:100940008093EF0501C08081FF91EF919F918F917E
:100950002F910F900FBE0F901F901895833081F04C
:1009600028F4813099F08230A1F008958730A9F001
:100970008830B9F08430D1F4809180008F7D03C03D
:10098000809180008F7780938000089584B58F7761
:1009900002C084B58F7D84BD08958091B0008F77AB
:1009A00003C08091B0008F7D8093B00008951F93A5
:1009B000CF93DF93282F30E0F901E858FE4F849160
:1009C000F901EC54FE4FD491F901E056FE4FC49169
:1009D000CC23C9F0162F81110E94AE04EC2FF0E059
:1009E000EE0FFF1FE457FE4FA591B4918FB7F89417
:1009F000111105C09C91ED2FE095E92302C0EC9107
:100A0000ED2BEC938FBFDF91CF911F910895CF9382
:100A1000DF9390E0FC01EC54FE4F2491FC01E05682
:100A2000FE4F8491882361F190E0880F991FFC01AB
:100A3000E259FE4FC591D491FC01E457FE4FA591B8
:100A4000B491611109C09FB7F894888120958223E1
:100A50008883EC912E230BC0623061F49FB7F89429
:100A60003881822F809583238883EC912E2B2C93C1
:100A70009FBF06C08FB7F894E8812E2B28838FBFC5
:100A8000DF91CF9108951F93CF93DF93182FEB0140
:100A900061E00E940705209711F460E004C0CF3F99
:100AA000D10539F461E0812FDF91CF911F910C9432
:100AB000D704E12FF0E0E858FE4FE491E330F9F07D
:100AC00048F4E130B9F0E230A1F584B5806284BD2C
:100AD000C8BD34C0E730E9F0E83019F1E43049F539
:100AE00080918000806280938000D0938B00C093BF
:100AF0008A0024C084B5806884BDC7BD1FC08091B2
:100B00008000806880938000D0938900C093880023
:100B100015C08091B00080688093B000C093B3008E
:100B20000DC08091B00080628093B000C093B4008B
:100B300005C0C038D1050CF0B5CFAFCFDF91CF9154
:100B40001F9108958F929F92AF92BF92CF92DF92A2
:100B5000EF92FF926B017C010E9416024B015C0137
:100B6000C114D104E104F104F1F00E941602DC0189
:100B7000CB0188199909AA09BB09883E9340A105B0
:100B8000B10570F321E0C21AD108E108F10888EE3E
:100B9000880E83E0981EA11CB11CC114D104E1048D
:100BA000F10419F7DDCFFF90EF90DF90CF90BF9069
:100BB000AF909F908F9008952FB7F8946091EE04B6
:100BC0007091EF048091F0049091F1042FBF08958B
:100BD0001F920F920FB60F9211242F933F938F9372
:100BE0009F93AF93BF938091EE049091EF04A091F7
:100BF000F004B091F1043091ED0423E0230F2D3780
:100C000020F40196A11DB11D05C026E8230F029610
:100C1000A11DB11D2093ED048093EE049093EF0489
:100C2000A093F004B093F1048091F2049091F30446
:100C3000A091F404B091F5040196A11DB11D80931B
:100C4000F2049093F304A093F404B093F504BF91DD
:100C5000AF919F918F913F912F910F900FBE0F9069
:100C60001F9018951F920F920FB60F9211242F9379
:100C70003F934F935F936F937F938F939F93AF9324
:100C8000BF93EF93FF93E091AA02F091AB023097EC
:100C900009F451C0968DA685B785858591FF04C05E
:100CA0009C91892329F447C09C91892309F043C072
:100CB000A389B4899C918589809589238C938689A1
:100CC00097890197F1F7608D718DA685B785558558
:100CD00038E020E0CB010197F1F7822F90E0959565
:100CE0008795282F4C91452309F02068315091F7C2
:100CF000868D81FD20958091A90290E001968F73E9
:100D000099273091A802381749F0A091A902B0E0C4
:100D1000A355BB4F2C938093A90203C0868D81609D
:100D2000868F828D938D0197F1F7A389B4899C9169
:100D30008589892B8C93FF91EF91BF91AF919F9102
:100D40008F917F916F915F914F913F912F910F9074
:100D50000FBE0F901F9018951F920F920FB60F9213
:100D600011242F933F934F935F936F937F938F93B0
:100D70009F93AF93BF93EF93FF938091B900887FC8
:100D8000803609F49CC068F5883209F45BC090F4A1
:100D9000803109F454C038F4882309F4F6C088304F
:100DA00009F44DC0F6C0883109F44CC0803209F412
:100DB0005DC0EFC0803409F468C048F4803309F4A2
:100DC00055C0883309F0E5C080935F05D8C08035F1
:100DD00009F44FC0883509F45DC0883409F0D9C0E2
:100DE000D6C0883909F4C7C0A8F4883709F467C0A9
:100DF00038F4883609F463C0803709F460C0C9C08C
:100E0000883809F4B8C0803909F45FC0803809F027
:100E1000C0C05BC0803B09F486C038F4803A09F456
:100E200066C0883A09F47FC0B4C0803C09F4A7C00A
:100E3000883C09F4A4C0883B09F48AC0AAC0809108
:100E40003C0510C090915E0580915D05981770F586
:100E5000E0915E0581E08E0F80935E05F0E0E35C3B
:100E6000FA4F80818093BB0085EC86C080935F053C
:100E70008EC0E0915E0581E08E0F80935E058091CB
:100E8000BB00F0E0E35CFA4F808390915E058091B7
:100E90005D056EC0E0915E0581E08E0F80935E057A
:100EA0008091BB00F0E0E35CFA4F808380916005A5
:100EB00081116DC081E080933B0584EA61C083E0CD
:100EC000809361051092AC04CFCF8091AC04803246
:100ED00008F051C0E091AC0481E08E0F8093AC0427
:100EE0008091BB00F0E0E457FB4F8083BDCF85ECE1
:100EF0008093BC00109261058091AC04803230F484
:100F0000E091AC04F0E0E457FB4F10826091AC0438
:100F100070E0E0918A04F0918B048CE894E00995EC
:100F20001092AC0436C084E080936105109289046D
:100F300010928804E0918604F091870409958091CD
:100F40008804811105C081E08093880410926604B2
:100F5000E091890481E08E0F80938904F0E0EA59E2
:100F6000FB4F80818093BB0090918904809188041D
:100F7000981708F479CF85E88093BC000AC085EC07
:100F80008093BC001092610504C010925F050E941E
:100F9000E102FF91EF91BF91AF919F918F917F916E
:100FA0006F915F914F913F912F910F900FBE0F90D6
:100FB0001F90189540918804262F30E0240F311D92
:100FC00021323105DCF4209161052430C9F4FC01A3
:100FD00080E090E0861758F4309188042191DC017C
:100FE000AA59BB4FA30FB11D2C930196F3CF80914B
:100FF0008804680F6093880480E0089581E0089574
:1010000082E008950895E091760680917506E817CC
:1010100030F4F0E0ED5EFA4F808190E008958FEFBC
:101020009FEF08959091760680917506981750F479
:10103000E92FF0E0ED5EFA4F208130E09F5F909362
:10104000760602C02FEF3FEFC90108958091750623
:1010500090E020917606821B91090895089580E022
:1010600090E00895CF92DF92EF92FF920F931F933B
:10107000CF93DF937C01262F972F8A018091620501
:10108000882391F0C62FD72F6E01C40ED51ECC1524
:10109000DD0571F06991D701ED91FC910190F0812E
:1010A000E02DC7010995F3CF642F822F0E94DA0744
:1010B000C801DF91CF911F910F91FF90EF90DF90CA
:1010C000CF900895CF93DF931F92CDB7DEB769839A
:1010D000209162052223D1F020917306203240F046
:1010E00021E030E0FC013383228380E090E015C0F2
:1010F00080917406E82FF0E0ED59FA4F99819083C2
:101100008F5F809374068093730605C061E0CE0103
:1011100001960E94DA0781E090E00F90DF91CF9175
:1011200008951092610581E08093600510923B055F
:1011300061E082E10E94D70461E083E10E94D7046C
:10114000E9EBF0E080818E7F808380818D7F8083DA
:1011500088E48093B80085E48093BC0008950C94E3
:10116000B5250C94AD25CF92DF92EF92FF920F93AD
:101170001F93CF93DF93EC0182E090E09093040300
:10118000809303038E010150110923E0000F111F0A
:101190002A95E1F7C80187549E4F0E94B1088093B9
:1011A0003305C80186549E4F0E94B10880933405D0
:1011B000C80185549E4F0E94B10880933505C8012F
:1011C00084549E4F0E94B10880933605C801835411
:1011D0009E4F0E94B10880933705C80182549E4FEC
:1011E0000E94B10880933805C80181549E4F0E9427
:1011F000B10880933905C80180549E4F0E94B10800
:1012000080933A050E945C100E94471061E084E4DC
:101210000E940C1068EE73E080E090E00E94A2054E
:101220000E945C10809312050E94471060E08EEBD4
:101230000E940C1010920903009109030930D0F4A8
:1012400010E098E0C92ED12CEE24E394F12C0E94FA
:10125000B50F8111FE28EE0C81E0C81AD108B9F74C
:10126000F801EA5FFA4FF082809109038F5F809363
:101270000903E2CF6091070570E0762F6627809121
:101280000605682B80910A05807611F4687F07C0F7
:10129000803211F46C7F03C0803409F46E7F072E16
:1012A000000C880B990B0E94B42420E030E040E849
:1012B0005DE30E94EF240E94092670930B03609364
:1012C0000A03C130D10529F4672BA1F4109206035B
:1012D0000AC0229791F4672B21F081E080930503E7
:1012E0000CC01092050384E190E090930B0380936F
:1012F0000A0303C081E08093060380E090E0DF9161
:10130000CF911F910F91FF90EF90DF90CF900895B4
:101310008F929F92AF92BF92CF92DF92EF92FF9205
:101320006C010E94DC054B015C010D2C000CEE08E9
:10133000FF080E94DC05AB01BC014C195D096E0978
:101340007F09481559056A057B0598F3FF90EF90D2
:10135000DF90CF90BF90AF909F908F900895DF92D5
:10136000EF92FF920F931F93CF93DF9380910E0321
:1013700090910F03019728E2289FE001299FD00D4B
:10138000112406EB12E07E0188E2E80EF11C87E0F2
:10139000D82ECE010E94B108F8013A97817080835F
:1013A000CE010E94B108F801399786958170880FA7
:1013B0008083CE010E94B108F801389782FB88270C
:1013C00080F9982F990F890F8083CE010E94B10870
:1013D000F801379783FB882780F9880F880F80836F
:1013E000CE010E94B108F801369782958170982F3E
:1013F000990F990F890F8083CE010E94B108F801DF
:10140000359785FB882780F9982F990F890F880FCA
:101410008083CE010E94B108F801349786FB8827AB
:1014200080F9D89E802D11248083CE0101960E94E0
:10143000B108F80133978083CE0102960E94B1086B
:10144000F80132978083CE0103960E94B108F8011B
:1014500031978083CE0104960E94B108F801808301
:101460002596055F1F4FCE15DF0509F092CFDF915E
:10147000CF911F910F91FF90EF90DF9008952F92E1
:101480003F924F925F926F927F928F929F92AF9214
:10149000BF92CF92DF92EF92FF920F931F93CF9361
:1014A000DF9300D000D000D0CDB7DEB788E60E9431
:1014B000760F87E090E00E94140F0E94190F88E6D3
:1014C00090E00E94B710909175068091760698176B
:1014D000F1F388E60E94760F88E090E00E94140FF6
:1014E0000E94190F88E690E00E94B710909175064F
:1014F000809176069817F1F387E796E00E9412082C
:1015000084FB882480F8912C85FBAA24A0F8B12CB8
:10151000AA0CBB1C8A0C9B1C86FBCC24C0F8D12CCB
:10152000CC0CDD1CCC0CDD1C8C0C9D1C2AE0289DF9
:10153000A001299D500D11249C0121703327240FF7
:10154000351F81FBEE24E0F8F12CEE0CFF1CE20EBF
:10155000F31E82FB002700F910E0000F111F000F9F
:10156000111F0E0D1F1D83FB222720F92D831E82C4
:101570008D819E81B3E0880F991FBA95E1F7800FA6
:10158000911F909300038093FF0288E60E94760FDC
:1015900089E090E00E94140F0E94190F88E690E005
:1015A0000E94B71090917506809176069817F1F316
:1015B00087E796E00E9412089093F9048093F8045C
:1015C00084FB442440F8512C85FB662460F8712C80
:1015D000660C771C460C571C2AE0249DA001259D13
:1015E000500D11249C0121703327240F351F81FBDE
:1015F000222420F8312C220C331C220E331E82FBB5
:10160000EE27E0F9E9831A8229813A81220F331FFC
:10161000220F331F220E331E83FBFF27F0F9FB83BB
:101620001C828B819C8163E0880F991F6A95E1F78A
:10163000280E391E309202032092010326960FB61F
:10164000F894DEBF0FBECDBFDF91CF911F910F91F8
:10165000FF90EF90DF90CF90BF90AF909F908F90D2
:101660007F906F905F904F903F902F9008952F92B2
:101670003F924F925F926F927F928F929F92AF9222
:10168000BF92CF92DF92EF92FF920F931F93CF936F
:10169000DF93CDB7DEB766970FB6F894DEBF0FBE07
:1016A000CDBF88E60E94760F80E090E00E94140F84
:1016B0000E94190F88E690E00E94B710909175067D
:1016C000809176069817F1F387E796E00E9412085A
:1016D0009C012170332781FBAA24A0F8B12CAA0C0D
:1016E000BB1CA20EB31E82FBCC24C0F8D12CCC0CA8
:1016F000DD1CCC0CDD1CCA0CDB1C83FB222720F973
:101700002D8B1E8A2D893E8943E0220F331F4A9577
:10171000E1F72C0D3D1D84FB882480F8912C85FB7E
:10172000EE24E0F8F12CEE0CFF1C8E0C9F1C86FBC7
:10173000002700F910E0000F111F000F111F800E8D
:10174000911E8AE0889D6001899DD00C11242C0D8A
:101750003D1D3093F7042093F60488E60E94760F2F
:1017600081E090E00E94140F0E94190F88E690E03B
:101770000E94B71090917506809176069817F1F344
:1017800087E796E00E9412089C012170332781FBB5
:10179000662460F8712C660C771C620E731E82FB47
:1017A000442440F8512C440C551C440C551C460C48
:1017B000571C83FB222420F8312C13E0220C331C0D
:1017C0001A95E1F7240C351C84FB332730F9398353
:1017D0001A8285FB442740F94B831C824B815C8134
:1017E000440F551F69817A81460F571F86FB772763
:1017F00070F97D831E822D813E81220F331F220FBF
:10180000331FCA01820F931F2AE0289F2001299FBE
:10181000500C1124240C351C309213032092120317
:1018200088E60E94760F82E090E00E94140F0E94EA
:10183000190F88E690E00E94B7109091750680918C
:1018400076069817F1F387E796E00E941208AC013C
:101850004170552781FBEE27E0F9EF8318862F8131
:101860003885220F331F240F351F82FBFF27F0F925
:10187000F9871A8649855A85440F551F440F551F0D
:10188000240F351F83FB442740F94B871C864B856B
:101890005C85F3E0440F551FFA95E1F7240F351FDF
:1018A00084FB662760F96D871E869AE06D857E85CC
:1018B000969FA001979F500D1124240F351F85FB83
:1018C000772770F97F87188A44E16F857889469F6A
:1018D000C001479F900D1124280F391F3093150325
:1018E0002093140388E60E94760F83E090E00E9424
:1018F000140F0E94190F88E690E00E94B710909193
:101900007506809176069817F1F387E796E00E94B6
:1019100012089093F9048093F804AC0141705527A4
:1019200081FB772770F9798B1A8A29893A89220FE6
:10193000331F420F531F82FBEE27E0F9EB8B1C8A0B
:101940002B893C89220F331F220F331FCA01820FBC
:10195000931F909317038093160366960FB6F8941F
:10196000DEBF0FBECDBFDF91CF911F910F91FF90D2
:10197000EF90DF90CF90BF90AF909F908F907F902F
:101980006F905F904F903F902F9008952F923F92CD
:101990004F925F926F927F928F929F92AF92BF927F
:1019A000CF92DF92EF92FF920F931F93CF93DF932B
:1019B000CDB7DEB727970FB6F894DEBF0FBECDBF09
:1019C00080E395E790930505809304050E94370B0B
:1019D00020911603309117032150310980EA95E0D8
:1019E000289FA001299F500D389F500D1124209150
:1019F0001403309115036CE3629FC001639F900D47
:101A00001124840F951F2091120330911303820F2C
:101A1000931F909311038093100321E030E03F83E4
:101A20002E832E813F8130930F0320930E030E945B
:101A3000AF094091020550910305209010033090AA
:101A400011034090040550900505609100057091C8
:101A500001052091FE043091FF04E090FC04F09019
:101A6000FD048091FA049091FB040091070310910A
:101A700008031D821C82A895982E892EB22EA32EB3
:101A8000A0E0B0E08C819D8184559D4F3C01C30155
:101A90008A0F9B1FFC012081211105C0892D982DE3
:101AA0002B2D3A2D2BC030E0F301F781F9838F2FD6
:101AB00090E09B838A83F301808590E06901F1E0E7
:101AC000CF1AD108E0EAF5E0CE9EA001CF9E500DDE
:101AD000DE9E500D1124E981FCE3EF9F400D511D66
:101AE0001124480F591F24163506C4F64415550510
:101AF000ACF6EA80FB806E817F812A011196A730C7
:101B0000B10529F0982E892EB22EA32EC0CF6531B3
:101B100071050CF48B01EC81FD813B96FD83EC8318
:101B2000E835F10509F0A7CF50930305409302056E
:101B300050920505409204057093010560930005DD
:101B40003093FF042093FE04E092FC04F092FD0425
:101B50009093FB048093FA04009307031093080307
:101B60002E813F812F5F3F4F3F832E832B303105E6
:101B700009F057CF20E030E08A30910524F02F5F44
:101B80003F4F0A97F9CF44E0220F331F4A95E1F700
:101B90007901E80EF91E8091FC049091FD0400E0AB
:101BA00010E08A30910524F00F5F1F4F0A97F9CF9C
:101BB00024E0000F111F2A95E1F7080F191F88E68E
:101BC0000E94760F87E090E00E94140F80E090E082
:101BD0000E94140F0E94190F88E60E94760F88E079
:101BE00090E00E94140FC7010E94140F0E94190F69
:101BF00088E60E94760F89E090E00E94140FC801E9
:101C00000E94140F0E94190F88E60E94760F8AE046
:101C100090E00E94140F8091FE049091FF04805C7C
:101C20009F4F0E94140F0E94190F27960FB6F89429
:101C3000DEBF0FBECDBFDF91CF911F910F91FF90FF
:101C4000EF90DF90CF90BF90AF909F908F907F905C
:101C50006F905F904F903F902F90089567E172E0F2
:101C600089E896E00E947103E0910C03F0910D0366
:101C7000B097EB35F10508F07FC0E45AFF4F0C94A4
:101C8000A02668E671E074C062E772E071C068E5A2
:101C900071E06EC068E672E06BC064E772E068C035
:101CA00066E772E065C068E772E062C06AE772E00A
:101CB0005FC06CE772E05CC06EE772E059C060E83C
:101CC00072E056C062E872E053C06FE771E050C046
:101CD00064E872E04DC066E872E04AC068E872E00D
:101CE00047C06AE872E044C064EF71E041C06CE84C
:101CF00072E03EC06EE872E03BC060E972E038C05E
:101D000062E972E035C063E172E032C064E972E01A
:101D10002FC066E972E02CC068E972E029C06AE968
:101D200072E026C06CE972E023C068E072E020C077
:101D300065E572E01DC06EE972E01AC06CE671E004
:101D400017C064ED71E014C06CE672E011C060EA87
:101D500072E00EC069E572E00BC062EA72E008C092
:101D600064EA72E005C06AEF71E002C066EA72E000
:101D700089E896E00C94710308958F929F92AF9238
:101D8000BF92EF92FF920F931F93CF93DF937C014B
:101D900003E815E0C0E0D0E0CE15DF05C9F10E94F0
:101DA000DC056093DE057093DF058093E00590937A
:101DB000E105E091D605F091D7050284F385E02D89
:101DC00086ED95E0099597FF1EC00E94DC05809086
:101DD000DE059090DF05A090E005B090E105DC0104
:101DE000CB0188199909AA09BB098090DA0590905E
:101DF000DB05A090DC05B090DD0588159905AA05E6
:101E0000BB05B8F205C0F80181938F012196C4CFBC
:101E1000CE01DF91CF911F910F91FF90EF90BF9076
:101E2000AF909F908F900895682F87E796E00C946D
:101E30006208209173069091DA06213208F04AC0B8
:101E4000809161058111FCCF32E03093610531E072
:101E5000309360053FEF30935F0510925E0520934D
:101E60005D05A3E6B5E04DE355E0FA013E2F341BD6
:101E7000321718F43D913193F9CF10923C0520911F
:101E80003C05990F922B90933C0590913B05913026
:101E900061F410923B0590913C059093BB009091AA
:101EA000BC0093FDF8CF95EC01C095EE9093BC007B
:101EB000909161059230E1F390915F059F3F79F039
:101EC00080915F05803241F080915F05803331F071
:101ED00084E005C081E003C082E001C083E010928D
:101EE00074061092730610926205089591E0909323
:101EF00062058093DA0610927406109273060895B4
:101F0000EF92FF920F931F93CF93DF93EC01809199
:101F10008D0690918E06E0908906F0908A060C81DD
:101F20001D81E114F104B1F00097B9F0080F191FF9
:101F3000B801CE010E941703882361F028813981FE
:101F40008C819D81B701820F931F0E94D7281D832A
:101F50000C8303C0CE010E943E03CE01DF91CF91DE
:101F60001F910F91FF90EF9008958091CC06E09122
:101F7000CD06F091CE06F8949181982B9183228121
:101F8000982F909529232283A7E0B0E01197F1F7CD
:101F9000218192239183A3E2B0E01197F1F7908120
:101FA0007894EFECF0E03197F1F7982381E009F4B1
:101FB00080E008959091CC06E091CD06F091CE0698
:101FC000392F309580FF13C0F8942281832F82230C
:101FD00082838181892B8183A3E2B0E01197F1F79D
:101FE0008281982B9283789487ED90E012C0F894C8
:101FF0002281832F822382838181892B8183AFEF8A
:10200000B0E01197F1F78281982B928378948FE05A
:1020100090E00197F1F70895EF92FF920F931F93CD
:10202000CF93DF931F92CDB7DEB7082F88E0E82E5D
:10203000F12C11E081E0912F902309F480E0698375
:102040000E94DA0F110F81E0E81AF1086981E114AA
:10205000F10481F7611113C0F894E091CD06F0917D
:10206000CE0691818091CC06809598239183E09152
:10207000CD06F091CE0692818923828378940F90C9
:10208000DF91CF911F910F91FF90EF9008951F93D3
:10209000CF93DF9360E085E50E940C10C3E3D5E0A9
:1020A0001C2F185F60E089910E940C101C13FACF5E
:1020B000DF91CF911F9108959091CC06E091CD06CC
:1020C000F091CE06F8948181292F20958223818377
:1020D00078948DE743E050E0815021F1DA011197C7
:1020E000F1F730813923C1F3F8948281822382830E
:1020F0008181892B81837894ABE7B7E01197F1F761
:10210000F894818128232183A3E1B1E01197F1F7AD
:102110008081982381E009F080E07894E3E6F6E09E
:102120003197F1F70895CF93DF93E5E8F1E08491DB
:10213000E1ECF1E0D491EDEAF1E0C491CC2391F02F
:1021400081110E94AE04EC2FF0E0EE0FFF1FEA5663
:10215000FE4FA591B491EC91ED2381E090E021F444
:1021600080E002C080E090E0DF91CF9108959091EF
:1021700061059111FCCF91E090936105909360050A
:102180002FEF20935F0510925E0510925D059093EE
:102190003C0590913C05880F892B80933C058091EC
:1021A0003B05813061F410923B0580913C058093A2
:1021B000BB008091BC0083FDF8CF85EC01C085EEAB
:1021C0008093BC00809161058130E1F380915E05D0
:1021D000811103C080915E0501C081E0ADE3B5E0EF
:1021E00023E135E0F9019E2F921B981718F49D9179
:1021F0009193F9CF109276068093750608950F9308
:102200001F93CF93DF93EC01AB01770F660B770B36
:1022100077FF03C00E94170403C02AE00E94CE0388
:102220008C0165E172E0CE010E94B903800F911F1D
:10223000DF91CF911F910F910895AB01770F660B3E
:10224000770B77FD0C9417042AE00C94CE03CF9300
:10225000DF93CDB7DEB76F970FB6F894DEBF0FBE32
:10226000CDBF789484B5826084BD84B5816084BD1F
:1022700085B5826085BD85B5816085BD80916E0024
:10228000816080936E001092810080918100826055
:102290008093810080918100816080938100809192
:1022A00080008160809380008091B1008460809381
:1022B000B1008091B00081608093B00080917A007D
:1022C000846080937A0080917A00826080937A00A3
:1022D00080917A00816080937A0080917A00806892
:1022E00080937A001092C10099E288E10FB6F894C9
:1022F000A895809360000FBE9093600061E084E039
:102300000E94070561E085E00E94070561E086E024
:102310000E94070561E087E00E94070561E088E010
:102320000E94070561E089E00E94070561E08AE0FC
:102330000E94070561E08BE00E94070562E08DE0E6
:102340000E940705E091E605F091E70582E08083B1
:10235000E091E205F091E3051082E091E405F0914F
:10236000E5058FEC80831092EE05E091EA05F0918F
:10237000EB0586E08083E091E805F091E905808136
:1023800080618083E091E805F091E90580818860B3
:102390008083E091E805F091E90580818068808381
:1023A000E091E805F091E90580818F7D80831092AE
:1023B000C8061092C7061092C6061092C506109263
:1023C000C4061092C3068FE796E09093CA068093E6
:1023D000C9069091B906963108F057C02EE233E055
:1023E0003093C4062093C3062DE736E03093C6062B
:1023F0002093C50625ED34E03093C8062093C70628
:1024000020916800983050F031E09E3008F430E0C0
:1024100081E001C0880F3A95EAF701C084E0822B81
:1024200080936800983038F09E3040F0963148F044
:1024300020E030E008C02DE630E005C02BE630E0BB
:1024400002C02CE630E03093C1062093C0069830DD
:1024500030F481E001C0880F9A95EAF70EC0292F69
:1024600030E09E3018F42850310902C02E50310956
:1024700081E001C0880F2A95EAF78093C206809117
:10248000C9069091CA060197F1F78091C70690910D
:10249000C806892B49F1E091AA02F091AB0226E02F
:1024A000ED3AF20709F1309739F0A389B4899C918C
:1024B0008589809589238C938091CB068E7F80932C
:1024C000CB061092A9021092A8028DEA96E0909392
:1024D000AB028093AA02E091C006F091C106908100
:1024E0008091C206892B808361E08EE00E940705FF
:1024F00061E080E10E94070561E081E10E9407053B
:1025000060E082E00E940705109276061092750640
:1025100010927406109273060E94910861E083E0A5
:102520000E94070560E083E00E94D7046CE471E03C
:1025300086ED95E00E94400468EC70E080E090E059
:102540000E94A205A0EAEA2EA5E0FA2EB8EE2B2EF4
:10255000B3E03B2E412C512CA895809164049091BE
:1025600065040196909365048093640480916304EC
:102570008F5F80936304893C08F0A1C089C161E842
:1025800071E08FE896E00E94F802882309F485C084
:1025900061E871E08DEA96E00E9440046CEF73E020
:1025A0008EE00E94430580E293E00E94880900E0EB
:1025B00010E0DD24D3948091D90681110C94082178
:1025C0000E945C1081110C94B2201092D7061092D8
:1025D000D9061092D80660E070E08EE00E944305B4
:1025E0006AE871E08DEA96E00E945404B8018DEA31
:1025F00096E00E94FF1061EA71E08DEA96E00E9489
:10260000400410930403009303036CEF73E08EE027
:102610000E94430580E293E00E94880981E090E0F7
:102620000E94B30880910A0390910B0390930804D1
:102630008093070482E090E00E94B30880910A032F
:1026400090910B03909306048093050460E070E082
:102650008EE00E94430560EC71E086ED95E00E94FB
:102660005404609107047091080486ED95E00E947F
:102670001D1169EE71E086ED95E00E9454046091B1
:1026800005047091060486ED95E00E941D1169EE27
:1026900071E086ED95E00E9454046CEC71E08FE8E7
:1026A00096E00E94F80281110C945D2166ED71E0C4
:1026B0008FE896E00E94F802882309F4E9C788EBC6
:1026C0009BE0A0E0B0E08093010190930201A09311
:1026D0000301B0930401809107039091080345978B
:1026E0000CF0D6C70E94370B0E943F0A60EE71E0E3
:1026F00086ED95E00E9454046091140370911503D7
:1027000086ED95E00E941D1169EE71E086ED95E081
:102710000E94540480911203909113030A9734F499
:1027200068E571E086ED95E00E9454046091120323
:102730007091130386ED95E00E941D1169EE71E022
:1027400086ED95E00E945404609116037091170382
:1027500086ED95E00E941D1169EE71E086ED95E031
:102760000E945404909106038091050391110C94EA
:10277000162381110C94202310920403109203035A
:10278000609103037091040386ED95E00E941D1192
:1027900069EE71E086ED95E00E94540460910704B3
:1027A0007091080486ED95E00E941D1169EE71E0BC
:1027B00086ED95E00E9454048091010390910203FC
:1027C0000A9734F468E571E086ED95E00E945404C0
:1027D000609101037091020386ED95E00E941D1146
:1027E00069EE71E086ED95E00E9454048091FF024D
:1027F000909100030A9734F468E571E086ED95E066
:102800000E9454046091FF027091000386ED95E0F0
:102810000E941D1169EE71E086ED95E00E9454045E
:102820006091190470911A0486ED95E00E941D11C3
:1028300069EE71E086ED95E00E9454040E949310C9
:102840006091070370910803019711F0665F7F4F55
:1028500086ED95E00E941D1169EE71E086ED95E030
:102860000E945404609105047091060486ED95E081
:102870000E941D1169EE71E086ED95E00E945404FE
:1028800080916304893C10F40C94A7211092630496
:10289000809164049091650403970CF40DC38091BA
:1028A0006204811109C310926504109264040E94AD
:1028B000370B2091160330911703215031092E9DBB
:1028C000A0012F9D500D3E9D500D11242091140309
:1028D000309115036CE3629FC001639F900D11243A
:1028E000840F951F2091120330911303AC01420F06
:1028F000531F588B4F87509311034093100310922E
:1029000061041092600410925F0410925E041092B1
:102910005D0410925C0410925B0410925A041092B1
:1029200059041092580410925704A89580902C03D3
:1029300090902D03A0902E03B0902F038091010161
:1029400090910201A0910301B0910401880E991E9B
:10295000AA1EBB1E0E94DC0586169706A806B906AD
:1029600010F40C94B3228091000181110C94B322D5
:1029700081E090E090932B0380932A03F4E6CF2E1E
:10298000DD24D39460902A0370902B035BE06516DE
:1029900071040CF037C2F3013197EA30F105A8F564
:1029A000EC5CFF4F0C94A026109256041092550434
:1029B0002CC0109254041092530427C01092520459
:1029C0001092510422C01092500410924F041DC066
:1029D00010924E0410924D0418C010924C041092A4
:1029E0004B0413C010924A04109249040EC0109276
:1029F00048041092470409C01092460410924504FE
:102A000004C0109244041092430470920F03609229
:102A10000E030E94AF09830109531F4F000F111FBE
:102A2000C8010E94B108682F70E07C876B877093A3
:102A3000290360932803C80101960E94B108E82F7A
:102A4000F0E0FA8BE98BF0932703E09326036CE91F
:102A50002B853C856203A001639F500D1124588F84
:102A60004F8B1E861D86C30183559E4F9A8F898F7B
:102A7000CF01821B930B9C01990F440B550B2B8F9D
:102A80003C8F4D8F5E8FA301415051095E8B4D8B62
:102A90001A8619864D855E8544555D4F58874F834C
:102AA000EF81F88569857A85E60FF71F8081882395
:102AB00009F48FC1EF81F885278190E001978E9D01
:102AC00050018F9DB00C9E9DB00C1124FCE32F9FF4
:102AD000A00CB11C1124EF81F8858085A80EB11CD3
:102AE000B0922503A09224038184912C9092230319
:102AF00080922203028510E01093210300932003AB
:102B0000898D9A8D0E94B108813029F48091070443
:102B10009091080404C0809105049091060490935C
:102B20001F0380931E0320911E0330911F033C8BD3
:102B30002B8BA901C49E9001C59E300D11246F8975
:102B4000788D260F371FD801A819B9090E94A6262B
:102B50002B8D3C8D4D8D5E8D0E948126CA01B90161
:102B600024E630E040E050E00E94812620931A03E2
:102B700030931B0340931C0350931D038B899C8946
:102B8000E989FA898E179F074CF48A0C9B1C280D43
:102B9000391D309319032093180307C0C501800F16
:102BA000911F90931903809318032F8538892A1554
:102BB0003B050CF40EC18091180390911903821704
:102BC00093070CF406C14B895C896B857C8546179D
:102BD00057070CF4FEC08D899E898A30910508F054
:102BE000F8C0FC01E25CFF4F0A0D1B1D0C94A026EF
:102BF000109356040093550480910F01882309F423
:102C0000E8C0D092600484EA91E00E94B10881306B
:102C100009F0DFC00E949310019709F0DAC00C940C
:102C2000E722109354040093530480910E018823EB
:102C300009F4CFC0D0925F0485EA91E00E94B10808
:102C4000813009F0C6C00E949310019709F0C1C0FD
:102C50000C94EB22109352040093510480910D01C7
:102C6000882309F4B6C0D0925E0486EA91E00E94FF
:102C7000B108813009F0ADC00E949310019709F0AE
:102C8000A8C00C94EF221093500400934F0480913D
:102C90000C01882309F49DC0D0925D0487EA91E07D
:102CA0000E94B108813009F094C00E9493100197EE
:102CB00009F08FC00C94F32210934E0400934D043E
:102CC00080910B01882309F484C0D0925C0488EAC7
:102CD00091E00E94B108813009F07BC00E949310FE
:102CE000019709F076C00C94F72210934C040093DE
:102CF0004B0480910A01882309F46BC0D0925B04D5
:102D000089EA91E00E94B108813009F062C00E9416
:102D10009310019709F05DC00C94FB2210934A04B4
:102D20000093490480910901882309F452C0D0928C
:102D30005A048AEA91E00E94B108813009F049C042
:102D40000E949310019709F044C00C94FF22109345
:102D5000480400934704809108018823D1F1D09260
:102D600059048BEA91E00E94B108813091F50E94EC
:102D70009310019771F50C9403231093460400936C
:102D8000450480910701882321F1D09258048CEAF0
:102D900091E00E94B1088130E1F40E949310019704
:102DA000C1F40C94072310934404009343048091CE
:102DB0000601882371F0D09257048DEA91E00E94B9
:102DC000B108813031F40E949310019711F40C94F2
:102DD0000B23E985FA853196FA87E987379709F059
:102DE0005FCE2D853E85255F3F4F3E872D87283559
:102DF000310509F04DCEC301019690932B038093CA
:102E00002A03C0CD8091550490915604892B19F462
:102E100081E080930F018091530490915404892B99
:102E200019F481E080930E01809151049091520435
:102E3000892B19F481E080930D0180914F049091CA
:102E40005004892B19F481E080930C0180914D048A
:102E500090914E04892B19F481E080930B018091AD
:102E60004B0490914C04892B19F481E080930A0162
:102E70008091490490914A04892B19F481E0809350
:102E800009018091470490914804892B19F481E04D
:102E9000809308018091450490914604892B19F490
:102EA00081E0809307018091430490914404892B31
:102EB00019F481E08093060140914104509142044D
:102EC0008091100390911103841795077CF0209155
:102ED0003F04309140042817390744F0452B31F066
:102EE000232B21F021E02093600408C010924204BB
:102EF000109241041092400410923F0440913D040E
:102F000050913E04841795077CF020913B0430914A
:102F10003C042817390744F0452B31F0232B21F0CE
:102F200021E020935F0408C010923E0410923D04FB
:102F300010923C0410923B044091390450913A04A1
:102F4000841795077CF020913704309138042817B6
:102F5000390744F0452B31F0232B21F021E0209359
:102F60005E0408C010923A0410923904109238049A
:102F70001092370440913504509136048417950718
:102F80007CF020913304309134042817390744F041
:102F9000452B31F0232B21F021E020935D0408C064
:102FA00010923604109235041092340410923304B7
:102FB0004091310450913204841795077CF02091A0
:102FC0002F04309130042817390744F0452B31F095
:102FD000232B21F021E020935C0408C010923204DE
:102FE000109231041092300410922F0440912D045D
:102FF00050912E04841795077CF020912B0430917A
:103000002C042817390744F0452B31F0232B21F0ED
:1030100021E020935B0408C010922E0410922D042E
:1030200010922C0410922B044091290450912A04F0
:10303000841795077CF020912704309128042817E5
:10304000390744F0452B31F0232B21F021E0209368
:103050005A0408C010922A041092290410922804DD
:103060001092270440912504509126048417950757
:103070007CF020912304309124042817390744F070
:10308000452B31F0232B21F021E02093590408C077
:103090001092260410922504109224041092230406
:1030A0004091210450912204841795077CF02091CF
:1030B0001F04309120042817390744F0452B31F0C4
:1030C000232B21F021E02093580408C01092220401
:1030D000109221041092200410921F0440911D04AC
:1030E00050911E04841795077CF020911B043091A9
:1030F0001C042817390744F0452B31F0232B21F00D
:1031000081E08093570408C010921E0410921D04A1
:1031100010921C0410921B0488EB91E00E94B108ED
:1031200090916004813009F591111CC080915F0479
:10313000811118C080915E04811114C080915D04DA
:10314000811110C080915C0481110CC080915B04DE
:10315000811108C080915A04811104C080915904E2
:10316000882319F081E08093580410921A04109279
:103170001904992359F061E084E00E94D70481E0AA
:1031800090E090931A048093190404C060E084E0F6
:103190000E94D70480915F04882371F061E085E08C
:1031A0000E94D7048091190490911A04029690937A
:1031B0001A048093190404C060E085E00E94D704DB
:1031C00080915E04882371F061E086E00E94D7045C
:1031D0008091190490911A04049690931A04809394
:1031E000190404C060E086E00E94D70480915D0469
:1031F000882371F061E087E00E94D7048091190470
:1032000090911A04089690931A048093190404C0AC
:1032100060E087E00E94D70480915C04882371F00D
:1032200061E088E00E94D7048091190490911A040B
:10323000409690931A048093190404C060E088E0DB
:103240000E94D70480915B04882371F061E089E0DB
:103250000E94D7048091190490911A04809690934B
:103260001A048093190404C060E089E00E94D70426
:1032700080915A04882379F061E08AE00E94D704A3
:103280008091190490911A04805C9F4F90931A04C6
:103290008093190404C060E08AE00E94D704809102
:1032A0005904882379F061E08BE00E94D704809173
:1032B000190490911A0480589F4F90931A04809398
:1032C000190404C060E08BE00E94D7048091580488
:1032D000882379F068EE73E080E10E9443058091D5
:1032E000190490911A04939590931A0480931904E9
:1032F00005C060E070E080E10E94430580915704C2
:10330000882309F44EC000911704109118040E94FC
:10331000DC052091150430911604021B130BA20149
:1033200091010E945F26200F311F309318042093D3
:1033300017040E94DC05A20191010E945F263093D0
:10334000160420931504C0901704D09018048EE83A
:1033500091E00E94B108082F10E08FE891E00E94F0
:10336000B108B801680F711D6C157D052CF4109221
:10337000180410921704E7CFC016D1061CF468EEAB
:1033800073E002C060E070E081E10E94430580913B
:10339000190490911A049E5F90931A048093190463
:1033A00005C060E070E081E10E9443058091130454
:1033B000909114040196909314048093130404973D
:1033C00044F00E94C60C0E943F0A1092140410920E
:1033D000130480916004811137C080915F048111D2
:1033E00033C080915E0481112FC080915D048111F2
:1033F0002BC080915C04811127C080915B048111F6
:1034000023C080915A0481111FC0809159048111F9
:103410001BC080915804811117C0809157048111FD
:1034200013C00E94C60C00911104109112040D30BB
:10343000110524F00E94C60C0E943F0A0F5F1F4F27
:103440001093120400931104A89586ED95E00E9454
:103450006C01892B09F488C7109263048FE390E014
:103460000E94BD0E109212041092110467E172E0E6
:103470008FE896E00E947103809183058A3709F0F6
:1034800002C1809184058B3609F0FDC080918505CD
:10349000863709F0F8C0809186058B3609F0F3C0B5
:1034A00081E0809362048091870590E090930F0300
:1034B00080930E0300E010E078E2D72EC8018D570C
:1034C0009A4F5C0120910E0330910F032150310976
:1034D000D29EC001D39E900D1124F5016781800F0B
:1034E000911F0E94AF08A8014F5F5F4F20910E030C
:1034F00030910F0321503109D29EC001D39E900D0F
:103500001124F5016085840F951F0E94AF08A80162
:103510004E5F5F4F20910E0330910F032150310910
:10352000D29EC001D39E900D1124F5016185840FB8
:10353000951F0E94AF08A8014D5F5F4F20910E03B9
:1035400030910F0321503109D29EC001D39E900DBE
:103550001124F5016285840F951F0E94AF08A80110
:103560004C5F5F4F20910E0330910F0321503109C2
:10357000D29EC001D39E900D1124F5016385840F66
:10358000951F0E94AF080B5F1F4F0832110509F00D
:1035900095CF60918805862F90E0909310048093DA
:1035A0000F048091890590E090930E0480930D04A0
:1035B00080910E0390910F0389539F4F880F991F9D
:1035C0000E94AF0880910E0390910F03880F991FFE
:1035D00060910D0481579E4F0E94AF088091B20503
:1035E000811103C01092050103C081E080930501A1
:1035F00080910E0390910F03609105018D559E4FB0
:103600000E94AF0880910E0390910F036091B30563
:1036100083559E4F0E94AF0880910E0390910F0337
:10362000099731F46091B60588EB91E00E94AF08EC
:1036300010926204E8E8F5E020E030E08191280F84
:10364000311D45E0ED3BF407C9F730930C0420939E
:103650000B048091BE0590E0982F88274091BD050E
:10366000840F911D2817390751F48CE291E00E94D4
:1036700088096AE571E086ED95E00E94540486EDC4
:1036800095E00E94EA0110920A041092090419C5FB
:103690006BEE71E08FE896E00E94F802882309F44F
:1036A0006AC086ED95E00E944A0166EF71E086ED02
:1036B00095E00E94400410920A04109209041092AE
:1036C0008305809183058436B1F083E090E00E9409
:1036D000BD0E8091090490910A04019690930A040A
:1036E0008093090445976CF36CEF71E086ED95E0EB
:1036F0000E9454043BC0809184058E3631F780913E
:10370000850590E090930D0380930C030E942E0E8C
:103710006AE072E086ED95E00E94540440918D06C7
:1037200050918E066091890670918A0686ED95E02B
:103730000E94100165E172E086ED95E00E94B903F8
:1037400089E896E00E94ED024B015C01709317033B
:103750006093160388E60E94760F83E090E00E9453
:10376000140FC4010E94140F0E94190F10920A0432
:1037700010920904ECC568E172E08FE896E00E94BF
:10378000F802882309F439C286ED95E00E944A01C7
:1037900080918D0590E090930D0380930C030E941F
:1037A0002E0E89E896E00E94ED024B015C017093B9
:1037B00033036093320310923103109230038091EF
:1037C0008E0590E090930D0380930C030E942E0EC3
:1037D00089E896E00E94ED0224E6269F8001279F5B
:1037E000100D1124109331030093300380918F0545
:1037F00090E090930D0380930C030E942E0E89E8B5
:1038000096E00E94ED022AE0269FA001279F500D1E
:103810001124040F151F109331030093300380917E
:10382000900590E090930D0380930C030E942E0E60
:1038300089E896E00E94ED02060F171F10933103EE
:10384000009330030E94370BC401990CAA0BBB0BE9
:103850008A30910508F0B4C1AC01485B5F4F6091BC
:103860001603709117032091140330911503809172
:10387000120390911303FA010C94A026FB013197D7
:10388000EE9DB001EF9D700DFE9D700D1124ECE3D7
:10389000E29FA001E39F500D1124460F571F840F94
:1038A000951F9093420480934104800F911F909341
:1038B000400480933F0481E080930F0161E084E045
:1038C00022C0FB013197EE9DB001EF9D700DFE9D72
:1038D000700D1124ECE3E29FA001E39F500D112431
:1038E000460F571F840F951F90933E0480933D040D
:1038F000800F911F90933C0480933B0481E0809360
:103900000E0161E085E00E94D7045AC1FB013197A6
:10391000EE9DB001EF9D700DFE9D700D1124ECE346
:10392000E29FA001E39F500D1124460F571F840F03
:10393000951F90933A0480933904800F911F9093C0
:1039400038048093370481E080930D0161E086E0C4
:10395000DACFFB013197EE9DB001EF9D700DFE9D1A
:10396000700D1124ECE3E29FA001E39F500D1124A0
:10397000460F571F840F951F90933604809335048C
:10398000800F911F909334048093330481E08093DF
:103990000C0161E087E0B7CFFB013197EE9DB001EC
:1039A000EF9D700DFE9D700D1124ECE3E29FA001D0
:1039B000E39F500D1124460F571F840F951F9093BE
:1039C000320480933104800F911F909330048093D0
:1039D0002F0481E080930B0161E088E094CFFB012C
:1039E0003197EE9DB001EF9D700DFE9D700D11247D
:1039F000ECE3E29FA001E39F500D1124460F571FF7
:103A0000840F951F90932E0480932D04800F911F97
:103A100090932C0480932B0481E080930A0161E051
:103A200089E071CFFB013197EE9DB001EF9D700DE4
:103A3000FE9D700D1124ECE3E29FA001E39F500D69
:103A40001124460F571F840F951F90932A048093CB
:103A50002904800F911F909328048093270481E00C
:103A60008093090161E08AE04ECFFB013197EE9D22
:103A7000B001EF9D700DFE9D700D1124ECE3E29FEF
:103A8000A001E39F500D1124460F571F840F951F6F
:103A90009093260480932504800F911F9093240413
:103AA0008093230481E08093080161E08BE02BCFB9
:103AB000FB013197EE9DB001EF9D700DFE9D700DE5
:103AC0001124ECE3E29FA001E39F500D1124460F67
:103AD000571F840F951F9093220480932104800F19
:103AE000911F9093200480931F0481E0809307012D
:103AF00068EE73E080E162C0FB013197EE9DB0019A
:103B0000EF9D700DFE9D700D1124ECE3E29FA0016E
:103B1000E39F500D1124460F571F840F951F90935C
:103B20001E0480931D04080F191F10931C0400939A
:103B30001B0481E080930601009117041091180482
:103B40000E94DC052091150430911604021B130B12
:103B5000A20191010E945F26200F311F30931804AB
:103B6000209317040E94DC05A20191010E945F26A8
:103B70003093160420931504C0901704D0901804B5
:103B80008EE891E00E94B108082F10E08FE891E0E4
:103B90000E94B1089801280F311D2C153D052CF409
:103BA0001092180410921704E7CFC016D1061CF427
:103BB00068EE73E002C060E070E081E10E944305BE
:103BC00063E272E086ED95E00E9454046091410446
:103BD0007091420486ED95E00E94FF1068E372E068
:103BE00086ED95E00E94540460913F04709140047A
:103BF00086ED95E00E94FF10AAC36CE472E08FE8A6
:103C000096E00E94F802882309F4C0C086ED95E092
:103C10000E944A0180918D0590E090930D0380935E
:103C20000C030E942E0E89E896E00E94ED0270932C
:103C3000330360933203CB01770FAA0BBB0B8A309F
:103C4000910508F084C3FC01EE5AFF4F81E090E03B
:103C50000C94A02690934204809341041092400457
:103C600010923F0410920F011092600460E084E013
:103C70000EC090933E0480933D0410923C04109239
:103C80003B0410920E0110925F0460E085E00E94F8
:103C9000D7045DC390933A0480933904109238049A
:103CA0001092370410920D0110925E0460E086E0DD
:103CB000EECF909336048093350410923404109222
:103CC000330410920C0110925D0460E087E0DFCFB6
:103CD00090933204809331041092300410922F0498
:103CE00010920B0110925C0460E088E0D0CF9093BA
:103CF0002E0480932D0410922C0410922B04109209
:103D00000A0110925B0460E089E0C1CF90932A041D
:103D1000809329041092280410922704109209011C
:103D200010925A0460E08AE0B2CF90932604809308
:103D3000250410922404109223041092080110927A
:103D4000590460E08BE0A3CF909322048093210478
:103D50001092200410921F04109207011092580430
:103D600060E070E080E10FC090931E0480931D041A
:103D700010921C0410921B0410920601109257041A
:103D800060E070E081E10E944305E1C267E572E016
:103D90008FE896E00E94F802882309F489C186ED35
:103DA00095E00E944A0110920A0410920904809141
:103DB00083058A37B1F08FE390E00E94BD0E8091B9
:103DC000090490910A04019690930A0480930904CF
:103DD0000B976CF36CEF71E086ED95E00E94540454
:103DE00045C180918405843731F7809185058637F8
:103DF00011F710920A041092090480E090E0FC018F
:103E0000ED57FA4F2081FC01E45CFC4F20830196C2
:103E100084319105A1F767E172E081EA96E00E94A2
:103E2000710367E172E08BE996E00E94710367E13C
:103E300072E085E996E00E94710310920A041092E4
:103E4000090400E010E0F801E45CFC4F808190E0A0
:103E500090930D0380930C030E942E0E6FE771E088
:103E600089E896E00E94F802882349F080910904CD
:103E700090910A04019690930A048093090480911A
:103E8000090490910A0481309105E1F46FE771E033
:103E900089E896E00E94F80281115EC01A821982B8
:103EA0001C821B821E821D8261EA76E0CE01019691
:103EB0000E948803CE0101960E94800FBC0181EA16
:103EC00096E01EC08230910511F56FE771E089E838
:103ED00096E00E94F80281113FC01A8219821C826A
:103EE0001B821E821D826BE976E0CE0101960E9444
:103EF0008803CE0101960E94800FBC018BE996E0F9
:103F00000E948803CE0101960E949F0325C003975B
:103F100019F56FE771E089E896E00E94F8028111D7
:103F20001BC01A8219821C821B821E821D8265E9B7
:103F300076E0CE0101960E948803CE0101960E9490
:103F4000800FBC0185E996E00E948803CE010196AE
:103F50000E949F0304E610E00F5F1F4F043111051C
:103F60000CF471CF1092350381EA96E00E94ED02C5
:103F7000609337038BE996E00E94ED02609336036D
:103F800088E60E94760F60E087E796E00E9462086C
:103F9000809135031AE0612F0E943F26692F30E19E
:103FA000839F600D112487E796E00E94620880914C
:103FB0003603612F0E943F26692F40E1849F600DE8
:103FC000112487E796E00E94620880913703612FF1
:103FD0000E943F26692F50E1859F600D112487E7DD
:103FE00096E00E94620880913803612F0E943F266C
:103FF000692F70E1879F600D112487E796E00E948A
:10400000620880913903612F0E943F26692FE0E109
:104010008E9F600D112487E796E00E9462088091D0
:104020003A03612F0E943F26692FF0E18F9F600DB8
:10403000112487E796E00E94620880913B038E512D
:10404000612F0E943F26692F20E1829F600D11247D
:1040500087E796E00E9462080E94190F882319F0F2
:104060001092340303C081E08093340384E190E034
:104070000E94880988E60E94760F83E090E00E9403
:10408000140F85E996E00E94ED0287E796E00E9412
:1040900062080E94190F6BE572E086ED95E00E94C0
:1040A000540467E172E08FE896E00E9471034FC10B
:1040B0008091090490910A04019690930A048093D8
:1040C00009048091090490910A048F3391050CF042
:1040D0003EC1FC01ED57FA4F808190E090930D03B3
:1040E00080930C030E942E0E1A8219821C821B825E
:1040F0001E821D826FE876E0CE0101960E94880341
:10410000CE0101960E94800FBC018FE896E00E94CC
:104110008803CE0101960E949F036AE671E08FE852
:1041200096E00E94F802882311F40C94BF12A8951F
:1041300086EC94E00E9488096EE671E086ED95E0D9
:104140000E9454042AE049E450E060E070E086ED0B
:1041500095E00E94CE0366E671E086ED95E00E9450
:104160005404F5C060E080EF0E940C10BB24B394AF
:10417000A12C912CCC24C3940E94B50F8F8F0E9448
:10418000B50F9F8D913019F48130C9F437C02A2DB5
:1041900030E098131EC08091D706C81638F4F90194
:1041A000E453F94F83818B2151F402C0C81639F0D2
:1041B00090E058E05C1560F0C092D80609C0EA2D86
:1041C000F0E0E453F94F83818B29838391E009C0A8
:1041D0009C2CF901E453F94F23818B2D8095822388
:1041E0008383892F0E94DA0FC394BB0C19F4A39424
:1041F000BB24B39467E06A1508F0BECF70E47C1569
:1042000038F49092D70691100AC2D092D90607C20C
:104210001092D7061092D9061092D80680E0AFEC23
:10422000B6E0E3E3F5E09D91919395E0EB33F90778
:10423000D1F7882311F40C94EB12109209038091AA
:104240000903883080F50115110541F490E0FC0167
:10425000ED5CFA4F608187549E4F0AC00130110512
:1042600049F490E0FC01ED5CFA4F60818F539E4F62
:104270000E94AF0860E28DEA96E00E945402E0914D
:104280000903F0E0ED5CFA4F408150E060E070E03F
:1042900020E18DEA96E00E94CE03809109038F5FB2
:1042A00080930903CCCF67E172E08DEA96E00E942B
:1042B00040040F5F1F4F0C94DB126CEC71E08DEA31
:1042C00096E00E94400410920903109109031830EF
:1042D00078F4C12ED12CC60187549E4F0E94B1089C
:1042E000F601ED5CFA4F80831F5F10930903EDCF59
:1042F0001092090300910903083090F410E0C801FE
:104300008F539E4F0E94B108682FC80187549E4F5B
:104310000E94AF08809109038F5F80930903EACF61
:104320001092090380910903883010F00C94561301
:1043300090E0FC01ED5CFA4F60818F539E4F0E942C
:10434000AF08809109038F5F80930903EBCF8AE068
:1043500090E00E94880910928305109284051092C3
:104360008505109286050CC080E69AEEA0E0B0E0CC
:104370008093010190930201A0930301B093040183
:104380006AE086ED95E00E94A30188EC90E00E942F
:104390008809809104048111DDC064E672E08DEA31
:1043A00096E00E94540480916004882319F068E626
:1043B00072E002C068E571E08DEA96E00E94540464
:1043C00080915F04882319F068E672E002C068E516
:1043D00071E08DEA96E00E94540480915E04882387
:1043E00019F068E672E002C068E571E08DEA96E0D7
:1043F0000E94540480915D04882319F068E672E0FD
:1044000002C068E571E08DEA96E00E945404809154
:104410005C04882319F068E672E002C068E571E088
:104420008DEA96E00E94540480915B04882319F081
:1044300068E672E002C068E571E08DEA96E00E94ED
:10444000540480915A04882319F068E672E002C08F
:1044500068E571E08DEA96E00E9454048091590469
:10446000882319F068E672E002C068E571E08DEA21
:1044700096E00E94540480915804882319F068E65D
:1044800072E002C068E571E08DEA96E00E94540493
:1044900080915704882319F068E672E002C068E54D
:1044A00071E08DEA96E00E9454046AE672E08DEABB
:1044B00096E00E94540460911603709117038DEAF0
:1044C00096E00E941D116CE672E08DEA96E00E9473
:1044D000540460911403709115038DEA96E00E94D4
:1044E0001D116FE771E08DEA96E00E94540460911F
:1044F0001203709113038DEA96E00E941D116EE67F
:1045000072E08DEA96E00E94540460910704709175
:1045100008048DEA96E00E941D1160E772E08DEAC2
:1045200096E00E94540460910504709106048DEA9F
:1045300096E00E941D1160E772E08DEA96E00E940D
:1045400054040E949310BC018DEA96E00E94FF1073
:1045500010920404809104048F5F809304040E94ED
:104560000C020C94AC12109200010E94DC056093C6
:104570002C0370932D0380932E0390932F036CEFE5
:1045800073E08EE00E94430580E293E00E94880978
:1045900081E090E00E94B30880910A0390910B03A0
:1045A000909308048093070482E090E00E94B3088F
:1045B00080910A0390910B03909306048093050465
:1045C00060E070E08EE00E9443050C94B8141092F5
:1045D00060040C94E91610925F040C94E916109292
:1045E0005E040C94E91610925D040C94E916109286
:1045F0005C040C94E91610925B040C94E91610927A
:104600005A040C94E916109259040C94E91610926D
:1046100058040C94E916109257040C94E9168091F2
:10462000CF06882309F4F4CD81E0F9CD81110BC0C8
:1046300081E090E090930403809303030C94C013F3
:1046400082E090E0F7CF83E090E0F4CF83E896E05B
:104650000E949F0389E896E00E949F038FE896E0FE
:104660000E949F0385E996E00E949F038BE996E0F4
:104670000E949F0381EA96E00E949F0387EA96E0EA
:104680000E949F038EE391E09093AE068093AD0667
:104690008091AA029091AB028D5A964071F4E091FC
:1046A000C006F091C10690818091C2068095892351
:1046B00080831092AB021092AA0208951092D9053D
:1046C0001092D80588EE93E0A0E0B0E08093DA0580
:1046D0009093DB05A093DC05B093DD052AE131E082
:1046E0003093D7052093D60525EC30E03093E305D1
:1046F0002093E20524EC30E03093E5052093E405B7
:1047000020EC30E03093E7052093E60521EC30E023
:104710003093E9052093E80522EC30E03093EB0577
:104720002093EA0526EC30E03093ED052093EC056C
:104730001092EF051092F0051092F1051092F2051B
:1047400010927A061092790680937B0690937C06ED
:10475000A0937D06B0937E068CE291E0909378065C
:104760008093770610927606109275061092740662
:10477000109273060E94910860E08CE00E94070589
:10478000E0ECF1E0E491E093CC06ECEAF1E0E491B6
:10479000F0E0EE0FFF1FEA56FE4F85919491909343
:1047A000CE068093CD061092D7061092D9061092AD
:1047B000D806E7EDF6E0129286E0EF3CF807D9F76D
:1047C0001092B0061092AF0688EE93E0A0E0B0E041
:1047D0008093B1069093B206A093B306B093B4064B
:1047E0008EE391E09093AE068093AD061092C406DE
:1047F0001092C3061092C6061092C5061092C80603
:104800001092C7061092CA061092C9066091CB0694
:104810006E7F6D7F6093CB066695617081E068273F
:1048200083E00E94D70461E083E00E940705E7EB84
:10483000F1E0E491E093BD06E3EAF1E0E491F0E019
:10484000EE0FFF1FE457FE4F859194919093BF06A2
:104850008093BE0660E082E00E9407058091CB064F
:1048600081FD04C061E082E00E94D70482E0809371
:10487000B906E6EBF1E0E491E093BA06E2EAF1E092
:10488000E491F0E0EE0FFF1FEA56FE4F8591949100
:104890009093BC068093BB0667E172E087EA96E0DE
:1048A0000E94A40367E172E081EA96E00E94A403FB
:1048B00067E172E08BE996E00E94A40367E172E091
:1048C00085E996E00E94A40367E172E08FE896E034
:1048D0000E94A40367E172E089E896E00E94A403C5
:1048E00067E172E083E896E00C94A4031F93FC0157
:1048F00099278827BC01E89411911032E9F3193007
:1049000010F01E30C8F31B3251F01D3249F4689488
:1049100006C00E949D24610F711D811D911D119182
:1049200010531A30B0F33EF49095809570956195D0
:104930007F4F8F4F9F4F1F910895592F482F372F2B
:10494000262F660F771F881F991F660F771F881FF6
:10495000991F620F731F841F951F660F771F881F93
:10496000991F0895E89409C097FB3EF490958095AF
:10497000709561957F4F8F4F9F4F9923A9F0F92F25
:1049800096E9BB279395F695879577956795B795A3
:10499000F111F8CFFAF4BB0F11F460FF1BC06F5F89
:1049A0007F4F8F4F9F4F16C0882311F096E911C09B
:1049B000772321F09EE8872F762F05C0662371F0BC
:1049C00096E8862F70E060E02AF09A95660F771FD0
:1049D000881FDAF7880F9695879597F908950E94B2
:1049E00002250C9473250E94652538F00E946C25E1
:1049F00020F0952311F00C945C250C946225112471
:104A00000C94A7250E94842570F3959FC1F3950F00
:104A100050E0551F629FF001729FBB27F00DB11D42
:104A2000639FAA27F00DB11DAA1F649F6627B00DD2
:104A3000A11D661F829F2227B00DA11D621F739FBB
:104A4000B00DA11D621F839FA00D611D221F749FC9
:104A50003327A00D611D231F849F600D211D822F10
:104A6000762F6A2F11249F5750409AF0F1F0882337
:104A70004AF0EE0FFF1FBB1F661F771F881F915064
:104A80005040A9F79E3F510580F00C945C250C9492
:104A9000A7255F3FE4F3983ED4F386957795679515
:104AA000B795F795E7959F5FC1F7FE2B880F911D8E
:104AB0009695879597F9089597F99F6780E870E034
:104AC00060E008959FEF80EC089500240A94161684
:104AD000170618060906089500240A9412161306EC
:104AE000140605060895092E0394000C11F488237A
:104AF00052F0BB0F40F4BF2B11F460FF04C06F5F96
:104B00007F4F8F4F9F4F089557FD9058440F551F6B
:104B100059F05F3F71F04795880F97FB991F61F03F
:104B20009F3F79F087950895121613061406551FB6
:104B3000F2CF4695F1DF08C0161617061806991F22
:104B4000F1CF86957105610508940895E894BB2717
:104B500066277727CB0197F90895F999FECF92BD83
:104B600081BDF89A992780B50895262FF999FECF2F
:104B70001FBA92BD81BD20BD0FB6F894FA9AF99A7A
:104B80000FBE019608952F923F924F925F926F92BF
:104B90007F928F929F92AF92BF92CF92DF92EF92CD
:104BA000FF920F931F93CF93DF93CDB7DEB7CA1B4E
:104BB000DB0B0FB6F894DEBF0FBECDBF09942A8879
:104BC000398848885F846E847D848C849B84AA8421
:104BD000B984C884DF80EE80FD800C811B81AA81AE
:104BE000B981CE0FD11D0FB6F894DEBF0FBECDBF79
:104BF000ED010895A29FB001B39FC001A39F700D66
:104C0000811D1124911DB29F700D811D1124911DD4
:104C100008950E9410266894B1110C94A725089558
:104C20000E948C2588F09F5798F0B92F9927B7518B
:104C3000B0F0E1F0660F771F881F991F1AF0BA9540
:104C4000C9F714C0B13091F00E94A625B1E00895D3
:104C50000C94A625672F782F8827B85F39F0B93FC5
:104C6000CCF3869577956795B395D9F73EF49095F3
:104C70008095709561957F4F8F4F9F4F0895991B39
:104C800079E004C0991F961708F0961B881F7A9543
:104C9000C9F78095089597FB072E16F4009407D066
:104CA00077FD09D00E94B52607FC05D03EF490950B
:104CB00081959F4F0895709561957F4F0895A1E26A
:104CC0001A2EAA1BBB1BFD010DC0AA1FBB1FEE1F86
:104CD000FF1FA217B307E407F50720F0A21BB30BD1
:104CE000E40BF50B661F771F881F991F1A9469F74D
:104CF00060957095809590959B01AC01BD01CF01A9
:104D00000895052E97FB1EF400940E94982657FDE7
:104D100007D00E945F2607FC03D04EF40C9498261F
:104D200050954095309521953F4F4F4F5F4F0895D7
:104D300090958095709561957F4F8F4F9F4F089507
:104D4000EE0FFF1F0590F491E02D09940E94FA25C3
:104D5000332312F48A1B9B0B0C94B0260E94FA2575
:104D6000B7FF0895821B930B0895AA1BBB1B51E14B
:104D700007C0AA1FBB1FA617B70710F0A61BB70BCB
:104D8000881F991F5A95A9F780959095BC01CD0170
:104D90000895CF93DF938230910510F482E090E084
:104DA000E091DD06F091DE0620E030E0C0E0D0E0EA
:104DB000309711F14081518148175907C0F04817C9
:104DC000590761F482819381209719F09B838A832C
:104DD0002BC09093DE068093DD0626C02115310599
:104DE00019F04217530718F49A01BE01DF01EF01D1
:104DF0000280F381E02DDCCF2115310509F1281B5C
:104E0000390B2430310590F412968D919C911397B3
:104E10006115710521F0FB019383828304C0909397
:104E2000DE068093DD06FD01329644C0FD01E20FEF
:104E3000F31F81939193225031092D933C933AC0F3
:104E40002091DB063091DC06232B41F420911201E6
:104E5000309113013093DC062093DB062091100182
:104E6000309111012115310541F42DB73EB7409124
:104E7000140150911501241B350BE091DB06F091D4
:104E8000DC06E217F307A0F42E1B3F0B28173907A7
:104E900078F0AC014E5F5F4F2417350748F04E0F96
:104EA0005F1F5093DC064093DB068193919302C011
:104EB000E0E0F0E0CF01DF91CF9108950F931F93D1
:104EC000CF93DF93009709F48CC0FC0132971382D3
:104ED00012820091DD061091DE060115110581F4A4
:104EE00020813181820F931F2091DB063091DC06F7
:104EF0002817390779F5F093DC06E093DB0671C0DB
:104F0000D80140E050E0AE17BF0750F412962D9143
:104F10003C911397AD012115310509F1D901F3CF6A
:104F20009D01DA013383228360817181860F971F8F
:104F30008217930769F4EC0128813981260F371F06
:104F40002E5F3F4F318320838A819B8193838283AD
:104F5000452B29F4F093DE06E093DD0642C013965C
:104F6000FC93EE931297ED01499159919E01240F04
:104F7000351FE217F30771F480819181840F951F2B
:104F8000029611969C938E938281938113969C93A3
:104F90008E931297E0E0F0E0D80112968D919C91EB
:104FA0001397009719F0F8018C01F6CF8D919C9121
:104FB00098012E5F3F4F820F931F2091DB063091A7
:104FC000DC062817390769F4309729F41092DE06B9
:104FD0001092DD0602C0138212821093DC06009349
:104FE000DB06DF91CF911F910F910895A0E0B0E013
:104FF000ECEFF7E20C94C725EC01009721F4CB010C
:105000000E94C926B8C0FC01E60FF71F9C01225080
:105010003109E217F30708F4ACC0D9010D911C91D6
:10502000119706171707B0F00530110508F49FC057
:10503000C80104978617970708F499C00250110910
:10504000061B170B019311936D937C93CF010E9464
:105050005E278DC05B01A01AB10A4C01800E911E23
:10506000A091DD06B091DE0640E050E0E12CF12C8D
:10507000109709F44AC0A815B905D1F56D907C9038
:105080001197630182E0C80ED11CCA14DB0480F1C1
:10509000A3014A195B096A0182E0C80ED11C12966D
:1050A000BC9012971396AC91B5E0CB16D10440F0AA
:1050B000B282A38351834083D9016D937C930AC04C
:1050C0000E5F1F4FC301800F911FF90191838083F1
:1050D000EB2DFA2FE114F10431F0D7011396FC9374
:1050E000EE93129744C0F093DE06E093DD063FC0D6
:1050F0008D919C9111974817590708F4AC017D01D7
:1051000012960D90BC91A02DB3CF8091DB069091AB
:10511000DC0688159905E1F446175707C8F4809115
:10512000100190911101009741F48DB79EB7409105
:10513000140150911501841B950BE817F907C8F469
:10514000F093DC06E093DB06F901718360830FC006
:10515000CB010E94C9267C01009759F0A801BE012D
:105160000E94C528CE010E945E27C70104C0CE015F
:1051700002C080E090E0CDB7DEB7EEE00C94E3250E
:1051800081E090E0F8940C94DE28FB01DC0102C081
:1051900001900D9241505040D8F70895FB01DC0179
:1051A0008D91019080190110D9F3990B0895FB019D
:1051B000DC0101900D920020E1F7089510E0C5EEAA
:1051C000D0E004C0FE010E94A0262196C63ED10771
:0651D000C9F7F894FFCFBF
:1051D6000160EA0000010101010101010101010173
:1051E6000000DF06800000000000A30110013B0163
:1051F600EA016C014A015E01000000006208320803
:105206002F080208260812080308000000005402AE
:1052160010012F085302A802C0023B0241542B453D
:105226004E41424C45494E443000726561647933C3
:10523600202020202020202020006E70720076651D
:1052460072736979612070726F736869766B693AF7
:1052560000702074656D702073006B6F6C696368F5
:10526600657374766F5F6461746368696B6F763DAE
:10527600002D2D2D2D2D2D2D2D2D2D2D2D2D2D2D85
:105286002D2D2D2D2D2D2D2D2D2D2D2D2D2D2D0075
:105296006461746368696B6920742B0063682074A9
:1052A600656D702073007A61707220767365700088
:1052B60076736520706172616D2B007A6170697317
:1052C60020646E6564007265616479007672656D4E
:1052D600796120767973686C6F0064656E206E65FF
:1052E60064656C69000D0A00766B6C207461696DEB
:1052F6002070007672656D5F73746172745F706F93
:105306006C697661313A20007672656D5F73746FF1
:10531600705F706F6C697661313A200076796B2028
:105326007461696D2070007A7476007265616479C3
:10533600207672003134430031004400740053007B
:105346002C002A00320033003400350036003700C6
:10535600380039003B0061006200630065006600AA
:10536600670068006A006B006C006D006E007100DB
:085376007500770078007A0051
:00000001FF
