:100000000C945D000C9485000C9485000C94850084
:100010000C9485000C9485000C9485000C9485004C
:100020000C9485000C9485000C9485000C9485003C
:100030000C9485000C9485000C9485000C9485002C
:100040000C9409020C9485000C94D7010C94B10116
:100050000C9485000C9485000C9485000C9485000C
:100060000C9485000C9485000000000024002700FB
:100070002A0000000000250028002B0004040404CE
:100080000404040402020202020203030303030342
:10009000010204081020408001020408102001021F
:1000A00004081020000000080002010000030407FB
:1000B00000000000000000008A0411241FBECFEFE2
:1000C000D8E0DEBFCDBF11E0A0E0B1E0ECEAF9E09E
:1000D00002C005900D92AC31B107D9F721E0ACE137
:1000E000B1E001C01D92A93DB207E1F710E0CDE5F6
:1000F000D0E004C02197FE010E94C904CC35D1078D
:10010000C9F70E9453020C94D4040C940000CF92BF
:10011000DF92EF92FF920F931F93CF93DF936C01C7
:100120007A018B01C0E0D0E0CE15DF0589F0D8015F
:100130006D918D01D601ED91FC910190F081E02D42
:10014000C6010995892B11F47E0102C02196ECCFDE
:10015000C701DF91CF911F910F91FF90EF90DF903A
:10016000CF900895089580E090E00895FC01538DAC
:10017000448D252F30E0842F90E0821B930B541781
:1001800010F0CF96089501970895FC01918D828D0E
:10019000981761F0828DDF01A80FB11D5D968C91DB
:1001A000928D9F5F9F73928F90E008958FEF9FEFE6
:1001B0000895FC01918D828D981731F0828DE80FA2
:1001C000F11D858D90E008958FEF9FEF0895FC015C
:1001D000918D228D892F90E0805C9F4F821B910929
:1001E0008F73992708958CE391E00E94E70021E046
:1001F000892B09F420E0822F0895FC01848DDF0112
:10020000A80FB11DA35ABF4F2C91848D90E0019689
:100210008F739927848FA689B7892C93A089B18978
:100220008C9180648C93938D848D981306C0028882
:10023000F389E02D80818F7D80830895EF92FF9276
:100240000F931F93CF93DF93EC0181E0888F9B8DF9
:100250008C8D981305C0E889F989808185FD24C0BB
:10026000F62E0B8D10E00F5F1F4F0F731127E02E3E
:100270008C8DE8120CC00FB607FCFACFE889F9891B
:10028000808185FFF5CFCE010E94FD00F1CF8B8DDF
:10029000FE01E80FF11DE35AFF4FF0820B8FEA8950
:1002A000FB898081806207C0EE89FF896083E889CD
:1002B000F98980818064808381E090E0DF91CF9133
:1002C0001F910F91FF90EF900895CF93DF93EC0172
:1002D000888D8823C9F0EA89FB89808185FD05C066
:1002E000A889B9898C9186FD0FC00FB607FCF5CFA0
:1002F000808185FFF2CFA889B9898C9185FFEDCFE8
:10030000CE010E94FD00E7CFDF91CF91089580E0FC
:1003100090E0892B29F00E94F30081110C940000D9
:1003200008952FB7F8946091210170912201809176
:100330002301909124012FBF0895009769F0FC01DB
:1003400001900020E9F73197AF01481B590BBC0120
:100350008CE391E00C94870080E090E008950E9487
:10036000CF041F920F920FB60F9211242F933F9339
:100370004F935F936F937F938F939F93AF93BF93AD
:10038000EF93FF938CE391E00E94FD00FF91EF91CA
:10039000BF91AF919F918F917F916F915F914F919D
:1003A0003F912F910F900FBE0F901F9018951F92A5
:1003B0000F920FB60F9211242F938F939F93EF9369
:1003C000FF93E0914C01F0914D018081E091520149
:1003D000F091530182FD12C09081809155018F5F91
:1003E0008F7320915601821751F0E0915501F0E092
:1003F000E45CFE4F958F8093550101C08081FF9191
:10040000EF919F918F912F910F900FBE0F901F90A2
:1004100018951F920F920FB60F9211242F933F93AE
:100420008F939F93AF93BF9380912101909122016D
:10043000A0912301B09124013091200123E0230FEA
:100440002D3720F40196A11DB11D05C026E8230F0C
:100450000296A11DB11D209320018093210190934C
:100460002201A0932301B093240180911C0190915B
:100470001D01A0911E01B0911F010196A11DB11D8A
:1004800080931C0190931D01A0931E01B0931F0146
:10049000BF91AF919F918F913F912F910F900FBE80
:1004A0000F901F901895CF93DF93CDB7DEB72897A5
:1004B0000FB6F894DEBF0FBECDBF789484B58260CE
:1004C00084BD84B5816084BD85B5826085BD85B5F8
:1004D000816085BD80916E00816080936E00109276
:1004E00081008091810082608093810080918100F1
:1004F0008160809381008091800081608093800082
:100500008091B10084608093B1008091B0008160DF
:100510008093B00080917A00846080937A0080910B
:100520007A00826080937A0080917A008160809363
:100530007A0080917A00806880937A001092C100DE
:10054000E0914C01F0914D0182E08083E0914801FF
:10055000F09149011082E0914A01F0914B0180E154
:10056000808310925401E0915001F091510186E096
:100570008083E0914E01F0914F0180818061808302
:10058000E0914E01F0914F01808188608083E0917D
:100590004E01F0914F01808180688083E0914E018F
:1005A000F0914F0180818F7D8083EDE9F0E024910F
:1005B000E9E8F0E08491882399F090E0880F991F92
:1005C000FC01E859FF4FA591B491FC01EE58FF4F93
:1005D000859194918FB7F8949C91292B2C938FBF80
:1005E00080913B0181110FC0F1E0F0933B01F0934A
:1005F0003A010E9491016093360170933701809314
:1006000038019093390180913B01882309F459C046
:10061000C0903601D0903701E0903801F090390158
:100620000E9491016C157D058E059F0560F02CE2FE
:10063000C20E21E0D21EE11CF11C6C157D058E0559
:100640009F0578F53EC01B012C01A701960160E0D3
:1006500070E0CB01C9823A834B835C836D837E83D8
:100660008F8398872BE231E040E050E061E070E05A
:1006700080E090E0A980BA80CB80DC80E12CF12C76
:1006800000E010E00E94B70459016A017B018C016F
:100690009101A20160E070E080E090E00E94C0045F
:1006A00084F00E949101609336017093370180932A
:1006B00038019093390180913A0131E0832780938A
:1006C0003A0120913A01E1EBF0E09491EDE9F0E09C
:1006D0008491E9E8F0E03491332309F43DC0992393
:1006E00039F1933091F038F49130A9F0923001F55E
:1006F00094B59F7D12C0973091F09830A1F094305E
:10070000B9F4909180009F7D03C0909180009F7705
:10071000909380000DC094B59F7794BD09C09091CF
:10072000B0009F7703C09091B0009F7D9093B00080
:10073000E32FF0E0EE0FFF1FEE58FF4FA591B491AD
:100740009FB7F894211104C02C918095822302C098
:100750002C91822B8C939FBF90913A01992351F059
:1007600080913501811106C080913401F1E08F271D
:10077000809334019093350190913401992351F085
:1007800080913301811106C08091320121E08227DE
:100790008093320190933301809132018093310133
:1007A00080913001882309F44DC0C0902C01D09075
:1007B0002D01E0902E01F0902F010E9491016C1507
:1007C0007D058E059F0560F038EBC30E3BE0D31E20
:1007D000E11CF11C6C157D058E059F0578F53FC069
:1007E0001B012C01A701960160E070E0CB01C982DA
:1007F0003A834B835C836D837E838F83988727EB5B
:100800003BE040E050E061E070E080E090E0A980F3
:10081000BA80CB80DC80E12CF12C00E010E00E945B
:10082000B70459016A017B018C019101A20160E0CA
:1008300070E080E090E00E94C0048CF031E03093E2
:100840002B010DC041E0409330010E949101609363
:100850002C0170932D0180932E0190932F012091F4
:100860002B012223A9F080913101882389F0809106
:100870002A0181110FC080912801909129010196D0
:10088000909329018093280151E050932A0102C0DE
:1008900010922A0180912701882321F010922901CA
:1008A0001092280181E040912801509129014A309D
:1008B00051050CF480E080932701222381F0809180
:1008C0003101882361F08091260181110AC082E103
:1008D00091E00E949D0161E06093260102C01092A8
:1008E000260180912701882381F0809125018111C3
:1008F0000EC087E191E00E949D0189E191E00E9494
:100900009D0171E07093250102C0109225010E94A3
:10091000870166CEECE3F1E01382128288EE93E069
:10092000A0E0B0E084839583A683B78384E091E060
:100930009183808385EC90E09587848784EC90E0B8
:100940009787868780EC90E0918B808B81EC90E09C
:10095000938B828B82EC90E0958B848B86EC90E07D
:10096000978B868B118E128E138E148E08952A19F2
:100970003B094C095D096E097F09800B910B0895B5
:100980002A153B054C055D056E057F05800791071F
:100990000895EE0FFF1F0590F491E02D099481E07A
:0C09A00090E0F8940C94D404F894FFCF7D
:1009AC00000000001E018700B6006501E700C500CD
:0C09BC00D900426C696E6B20000D0A002F
:00000001FF
