:100000000C9463000C948B000C948B000C948B006C
:100010000C948B000C948B000C948B000C94E905D1
:100020000C948B000C948B000C948B000C94280582
:100030000C948B000C948B000C948B000C948B0014
:100040000C94FF030C948B000C94DD020C94B7020B
:100050000C948B000C948B000C948B000C948B00F4
:100060000C948B000C948B000000000023002600F1
:10007000290000000000240027002A0000000000E2
:10008000250028002B0004040404040404040202D4
:100090000202020203030303030301020408102007
:1000A0004080010204081020010204081020000012
:1000B0000008000201000003040700000000000027
:1000C0000000CA12C61211241FBECFEFD8E0DEBF57
:1000D000CDBF11E0A0E0B1E0E6EBF1E302C0059096
:1000E0000D92A632B107D9F723E0A6E2B1E001C034
:1000F0001D92A132B207E1F710E0C2E6D0E004C0E1
:100100002197FE010E94B316C136D107C9F70E949C
:10011000BB070C94CE180C940000CF92DF92EF92A4
:10012000FF920F931F93CF93DF936C017A018B01A2
:10013000C0E0D0E0CE15DF0589F0D8016D918D01CA
:10014000D601ED91FC910190F081E02DC601099559
:10015000892B11F47E0102C02196ECCFC701DF91FB
:10016000CF911F910F91FF90EF90DF90CF90089566
:10017000089580E090E00895FC01538D448D252F73
:1001800030E0842F90E0821B930B541710F0CF9631
:10019000089501970895FC01918D828D981761F063
:1001A000828DDF01A80FB11D5D968C91928D9F5FAE
:1001B0009F73928F90E008958FEF9FEF0895FC0159
:1001C000918D828D981731F0828DE80FF11D858D0C
:1001D00090E008958FEF9FEF0895FC01918D228D9F
:1001E000892F90E0805C9F4F821B91098F73992724
:1001F00008958CE791E00E94ED0021E0892B09F43D
:1002000020E0822F0895FC01848DDF01A80FB11D2D
:10021000A35ABF4F2C91848D90E001968F7399273C
:10022000848FA689B7892C93A089B1898C91806429
:100230008C93938D848D981306C00288F389E02DEA
:1002400080818F7D80830895EF92FF920F931F939B
:10025000CF93DF93EC0181E0888F9B8D8C8D981379
:1002600005C0E889F989808185FD24C0F62E0B8DB3
:1002700010E00F5F1F4F0F731127E02E8C8DE812D7
:100280000CC00FB607FCFACFE889F989808185FF99
:10029000F5CFCE010E940301F1CF8B8DFE01E80F57
:1002A000F11DE35AFF4FF0820B8FEA89FB898081B1
:1002B000806207C0EE89FF896083E889F9898081BF
:1002C0008064808381E090E0DF91CF911F910F9156
:1002D000FF90EF900895CF93DF93EC01888D8823F2
:1002E000C9F0EA89FB89808185FD05C0A889B989A3
:1002F0008C9186FD0FC00FB607FCF5CF808185FF7E
:10030000F2CFA889B9898C9185FFEDCFCE010E94EB
:100310000301E7CFDF91CF91089580E090E0892B32
:1003200029F00E94F90081110C9400000895833097
:1003300081F028F4813099F08230A1F0089587305F
:10034000A9F08830B9F08430D1F4809180008F7D9D
:1003500003C0809180008F7780938000089584B5DA
:100360008F7702C084B58F7D84BD08958091B000E1
:100370008F7703C08091B0008F7D8093B000089587
:100380000E94B0180F931F93CF93DF93EC018881E5
:100390009981009729F02A813B812617370788F435
:1003A0008B016F5F7F4F0E94E617009761F0998382
:1003B00088831B830A832C813D81232B11F4FC014C
:1003C000108281E001C080E0DF91CF911F910F91F9
:1003D0000895CF93DF93EC0188819981009711F004
:1003E0000E944E17198218821D821C821B821A825B
:1003F000DF91CF910895EF92FF920F931F93CF93C8
:10040000DF93EC017B018A01BA010E94C2018111D4
:1004100004C0CE010E94E90107C01D830C83B7010F
:10042000888199810E94C718CE01DF91CF911F91D9
:100430000F91FF90EF900895EF92FF920F931F930B
:10044000CF93DF93EC01FB0184819581E080F18003
:100450000C811D81E114F104B1F00097B9F0080F8F
:10046000191FB801CE010E94C201882361F02881C2
:1004700039818C819D81B701820F931F0E94C7181B
:100480001D830C8303C0CE010E94E901CE01DF91E0
:10049000CF911F910F91FF90EF900895CF93DF932D
:1004A000EC01FB018617970761F06081718161158E
:1004B000710529F0448155810E94FB0102C00E9410
:1004C000E901CE01DF91CF910895FC0180819181F6
:1004D0000C944E17EF92FF920F931F93CF93DF93DD
:1004E000CDB7DEB762970FB6F894DEBF0FBECDBFB3
:1004F0008C01CB01F80111821082138212821582C5
:10050000148250E09E012F5F3F4F7901B9010E9494
:100510004D13F70101900020E9F73197AF014E1913
:100520005F09B701C8010E94FB0162960FB6F894FB
:10053000DEBF0FBECDBFDF91CF911F910F91FF9016
:10054000EF900895FC0111821082138212821582AD
:1005500014826115710551F0FB0101900020E9F74B
:100560003197AF01461B570B0C94FB0108951F9266
:100570000F920FB60F9211242F933F934F935F93D7
:100580006F937F938F939F93AF93BF93EF93FF935B
:100590008CE791E00E940301FF91EF91BF91AF9131
:1005A0009F918F917F916F915F914F913F912F918B
:1005B0000F900FBE0F901F9018951F920F920FB6BD
:1005C0000F9211242F938F939F93EF93FF93E091BA
:1005D0008C01F0918D018081E0919201F091930165
:1005E00082FD12C09081809195018F5F8F73209161
:1005F0009601821751F0E0919501F0E0E458FE4F2A
:10060000958F8093950101C08081FF91EF919F911B
:100610008F912F910F900FBE0F901F9018951F93E1
:10062000CF93DF93282F30E0F901E255FF4F8491FB
:10063000F901E656FF4FD491F901EA57FF4FC491F3
:10064000CC23C9F0162F81110E949701EC2FF0E006
:10065000EE0FFF1FE458FF4FA591B4918FB7F894A8
:10066000111105C09C91ED2FE095E92302C0EC919A
:10067000ED2BEC938FBFDF91CF911F910895CF9316
:10068000DF9390E0FC01E656FF4F2491FC01EA570E
:10069000FF4F8491882361F190E0880F991FFC013E
:1006A000EE58FF4FC591D491FC01E458FF4FA5913E
:1006B000B491611109C09FB7F89488812095822375
:1006C0008883EC912E230BC0623061F49FB7F894BD
:1006D0003881822F809583238883EC912E2B2C9355
:1006E0009FBF06C08FB7F894E8812E2B28838FBF59
:1006F000DF91CF9108951F93CF93DF93182FEB01D4
:1007000061E00E943F03209711F460E004C0CF3FF6
:10071000D10539F461E0812FDF91CF911F910C94C5
:100720000F03E12FF0E0E255FF4FE491E330F9F0E1
:1007300048F4E130B9F0E230A1F584B5806284BDBF
:10074000C8BD34C0E730E9F0E83019F1E43049F5CC
:1007500080918000806280938000D0938B00C09352
:100760008A0024C084B5806884BDC7BD1FC0809145
:100770008000806880938000D0938900C0938800B7
:1007800015C08091B00080688093B000C093B30022
:100790000DC08091B00080628093B000C093B4001F
:1007A00005C0C038D1050CF0B5CFAFCFDF91CF91E8
:1007B0001F9108953FB7F894809168019091690165
:1007C000A0916A01B0916B0126B5A89B05C02F3F8F
:1007D00019F00196A11DB11D3FBFBA2FA92F982F67
:1007E0008827820F911DA11DB11DBC01CD0142E0E2
:1007F000660F771F881F991F4A95D1F708951F929A
:100800000F920FB60F9211242F933F938F939F93C4
:10081000AF93BF938091640190916501A0916601AF
:10082000B09167013091630123E0230F2D3720F44D
:100830000196A11DB11D05C026E8230F0296A11D3A
:10084000B11D209363018093640190936501A0938F
:100850006601B09367018091680190916901A09150
:100860006A01B0916B010196A11DB11D80936801D1
:1008700090936901A0936A01B0936B01BF91AF910E
:100880009F918F913F912F910F900FBE0F901F90CE
:100890001895CF92DF92EF92FF92CF93DF93EC0106
:1008A000603282E078070CF03DC077FD06C0653B02
:1008B00071052CF064EB70E002C060E070E08981AB
:1008C00028E830E06901C81AD10887FDD394CC0C20
:1008D000DD1CCC0CDD1C0D2C000CEE08FF088A8101
:1008E00028E532E0281B310987FD3395220F331F9D
:1008F000220F331FC901330FAA0BBB0B9C01AD01A3
:100900002C193D094E095F09DB010E94DB1424EB21
:1009100030E040E050E00E94B114C20ED31EE41E4D
:10092000F51EB60188818C3080F5998148E850E049
:10093000491B510997FD5395440F551F440F551FEF
:100940006417750784F09A8128E532E0291B310984
:1009500097FD3395220F331F220F331FAB0126174C
:1009600037070CF4A90142505109440F551F2FB706
:10097000F89490E0FC01EE0FFF1F8E0F9F1FFC010B
:10098000E75EFD4F528341832FBFDF91CF91FF90F0
:10099000EF90DF90CF9008951F93CF93DF93EC01FA
:1009A000162F88818C3008F04EC061E0812F0E94A4
:1009B0003F038881E82FF0E09F01220F331FE20FF1
:1009C000F31FE75EFD4F1F739081907C192B1083FE
:1009D00019821A826CE00E9470169CE0899FB00117
:1009E000112440E050E09A01260F371FF901EE0F65
:1009F000FF1F2E0F3F1FF901E75EFD4F908196FD0F
:100A000016C04F5F5F4F4C30510569F781110FC021
:100A10001092800082E080938100109285001092F5
:100A20008400B19A80916F00826080936F00E881AA
:100A3000F0E0CF01880F991FE80FF91FE75EFD4F27
:100A40008081806480838881DF91CF911F91089598
:100A50001F920F920FB60F9211242F933F934F9333
:100A60005F936F937F938F939F93AF93BF93EF9316
:100A7000FF938091620187FF05C01092850010925C
:100A800084001BC020916201022E000C330B809168
:100A90003D0290E02817390784F480916201082E06
:100AA000000C990BFC01EE0FFF1F8E0F9F1FFC0126
:100AB000E75EFD4F808186FD15C0809162018F5FEA
:100AC0008093620120916201022E000C330B809111
:100AD0003D0290E028173907C4F4809162018C3000
:100AE00064F113C080916201082E000C990BFC0187
:100AF000EE0FFF1F8E0F9F1FFC01E75EFD4F8081F1
:100B000060E08F730E940F03D8CF80918400909192
:100B10008500049680349C4918F480E49CE905C063
:100B20008091840090918500049690938900809331
:100B300088008FEF809362013BC020918400309148
:100B4000850080916201082E000C990BFC01EE0FCC
:100B5000FF1F8E0F9F1FFC01E75EFD4F8181928179
:100B6000820F931F90938900809388008091620187
:100B7000082E000C990BFC01EE0FFF1F8E0F9F1F1C
:100B8000FC01E75EFD4F808186FF12C0809162010B
:100B9000082E000C990BFC01EE0FFF1F8E0F9F1FFC
:100BA000FC01E75EFD4F808161E08F730E940F03BF
:100BB000FF91EF91BF91AF919F918F917F916F9135
:100BC0005F914F913F912F910F900FBE0F901F900B
:100BD00018951F920F920FB60F9211242F933F93E7
:100BE0004F935F936F937F938F939F93AF93BF9335
:100BF000CF93DF93EF93FF9320913F0230E0F90111
:100C0000E255FF4F8491F901E656FF4FD491F90167
:100C1000EA57FF4FC491CC23A1F081110E949701A4
:100C2000EC2FF0E0EE0FFF1FE859FF4FA591B491B4
:100C3000EC91ED2331E020E009F430E0832F922F96
:100C400002C080E090E020914302309144022F5F87
:100C50003F4F3093440220934302209142022536B5
:100C600018F026E020933E0220913E022430D9F174
:100C700028F4223069F02330D9F060C0253009F41F
:100C800053C0263009F05AC021E020930F0353C00F
:100C9000009709F053C0209143023091440224365A
:100CA000310508F443C010920F03109242021DC098
:100CB0008130910509F042C0E091420221E02E0FFF
:100CC00020934202F0E02091430230914402EE0F63
:100CD000FF1FE25CFD4F3087278310924402109281
:100CE000430224E029C00097B9F4E091420221E0D8
:100CF0002E0F20934202F0E02091430230914402F3
:100D0000EE0FFF1FE25CFD4F3087278310924402F5
:100D10001092430223E010C020914302309144021C
:100D20002536310558F007C0009741F4109244026F
:100D30001092430203C025E020933E02209141021D
:100D40002223B9F0892B51F480914002882321F0AD
:100D50008091400261E009C02D9A0BC08091400251
:100D6000882331F08091400260E00E940F0301C0AF
:100D70002D98FF91EF91DF91CF91BF91AF919F910E
:100D80008F917F916F915F914F913F912F910F9034
:100D90000FBE0F901F901895CF92DF92EF92FF92A7
:100DA000CF93DF93EC01072E000C880B990B0E9468
:100DB00094136B017C0120E030E040E45FE30E948B
:100DC000F31320E030E048E452E40E94B8150E949A
:100DD0002A16C617D707D4F020E030E040EA5FE3D8
:100DE000C701B6010E94F31320E030E048E452E46A
:100DF0000E94B81520E030E040E85FE30E944C1507
:100E00000E942A1621E06C177D070CF420E0822F47
:100E100090E0DF91CF91FF90EF90DF90CF90089519
:100E20008F929F92AF92BF92CF92DF92EF92FF92FA
:100E30000E94DA036B017C0192E0892E912CA12C97
:100E4000B12C0E94DA03DC01CB018C199D09AE099B
:100E5000BF09883E9340A105B10598F328EEC20E64
:100E600023E0D21EE11CF11C8A9489288A288B2851
:100E700029F0812C912C54018394E3CFFF90EF90C3
:100E8000DF90CF90BF90AF909F908F9008958F92FA
:100E90009F92AF92BF92CF92DF92EF92FF920F9309
:100EA0001F93CF93DF93FC01C081D1812091780102
:100EB00030917901C217D3070CF04BC09E01220F6D
:100EC000331FE0917601F0917701E20FF31F8080EC
:100ED0009180C170DD27F1E0CF27209719F404E657
:100EE00010E002C00CE91FEF7A015B016C01040FF6
:100EF000151FB801C4010E94CC06892B99F40E0D70
:100F00001F1DB801C4010E94CC06892B71F4B801E1
:100F10006E0D7F1DC4010E94CC06892BE9F023E0F1
:100F200030E005C021E030E002C022E030E0F50111
:100F3000808191810196821793073CF0F50111821F
:100F40001082F60180819181019691838083CE0188
:100F500005C081E090E002C08FEF9FEFDF91CF915D
:100F60001F910F91FF90EF90DF90CF90BF90AF90C7
:100F70009F908F900895CF93DF93CDB7DEB7AC9756
:100F80000FB6F894DEBF0FBECDBF789484B58260F3
:100F900084BD84B5816084BD85B5826085BD85B51D
:100FA000816085BD80916E00816080936E0010929B
:100FB0008100809181008260809381008091810016
:100FC00081608093810080918000816080938000A7
:100FD0008091B10084608093B1008091B000816005
:100FE0008093B00080917A00846080937A00809131
:100FF0007A00826080937A0080917A008160809389
:101000007A0080917A00806880937A001092C10003
:10101000E0918C01F0918D0112E01083E091880144
:10102000F09189011082E0918A01F0918B0180E1B9
:10103000808310929401E0919001F091910186E0FB
:101040008083E0918E01F0918F01808180618083A7
:10105000E0918E01F0918F01808188608083E09122
:101060008E01F0918F01808180688083E0918E01F4
:10107000F0918F0180818F7D808361E087E00E9405
:101080003F0361E088E00E943F0361E089E00E9445
:101090003F0361E08AE00E943F03F8941093B000A0
:1010A0001093B10084E68093B3001092B2001093C5
:1010B0007000789410933E021092420280913F0299
:1010C00060E00E943F0380E2282E312C44244A94A1
:1010D000542C320125E432E03093770120937601DD
:1010E0008091420290E09093790180937801809101
:1010F0000F0390E090937B0180937A0180913E02F0
:10110000853009F095C28091470290914802885835
:1011100091098D35910588F480914202843041F423
:101120008091490290914A028097479708F4CEC572
:1011300080914202843408F0B0C5809142028A3125
:1011400008F44FC08091450290914602843F91403F
:1011500068F41092750110927401409270015092DF
:101160007101609272017092730159C080914702BF
:101170009091480285974B97A0F5EBE4F2E082E06E
:1011800090E0C12CD12C7601AC014F5F5F4F2091D4
:10119000420230E0421753075CF4DF0112972D91B1
:1011A0003C91275031092730310508F4D3C5CA01D5
:1011B00001979595879590937501809374010C978D
:1011C0002CF410927501109274010BC0C092700142
:1011D000D0927101E0927201F092730184E090E08C
:1011E000A4C6809142028A3108F44CC08091450225
:1011F000909146028032934008F4ABCF8091470231
:1012000090914802C697869708F4C1C53BC0C0922A
:101210007001D0927101E0927201F09273018BE043
:1012200090E083C620813181255231092B3131056F
:1012300008F0BDC5CC0CDD1CEE1CFF1C6894C0F88A
:1012400002963496AC014F5F5F4F2091420230E02E
:101250004217530754F4DF0112972D913C912C5003
:1012600031092B303105F0F2CA0101979595879528
:1012700090937501809374010C974CF61092750150
:1012800010927401809142028232E8F1809147020B
:101290009091480206970797B0F5EBE4F2E082E000
:1012A00090E0C12CD12C76019C012F5F3F4F4091E3
:1012B000420250E0241735076CF4DF0112974D917C
:1012C0005C9111974E5151094731510508F493C56E
:1012D0007BC5C9010197959587959093750180937A
:1012E000740140972CF410927501109274010BC098
:1012F000C0927001D0927101E0927201F09273017C
:101300008CE090E012C618861F8281E090E09A83FC
:101310008983809142028D3008F46BC049E753E025
:10132000BE01695F7F4FCE0101960E944707892B5E
:1013300009F05FC049E753E0BE01695F7F4FCE010E
:1013400001960E944707019709F053C049E753E00F
:10135000BE01695F7F4FCE0101960E944707892B2E
:1013600009F047C0812C912C540100E010E08091DD
:10137000420290E029813A81281739075CF549E754
:1013800053E0BE01695F7F4FCE0101960E9447077F
:101390007C0149E753E0BE01695F7F4FCE010196B2
:1013A0000E944707B1E0EB16F10449F4892B09F5D7
:1013B000880C991CAA1CBB1C689480F808C0EF28F4
:1013C000C1F40197B1F4880C991CAA1CBB1C0F5FD7
:1013D0001F4FCDCF1093750100937401809270015F
:1013E00090927101A0927201B092730181E090E03D
:1013F0009CC518861F8281E090E09A838983809142
:10140000780190917901181619060CF058C0E091F6
:101410007601F091770182E090E09A83898382815E
:10142000938189974E9708F04AC083E090E09A83B1
:101430008983848195810B970A9708F040C04CEB13
:1014400051E0BE01695F7F4FCE0101960E944707C0
:10145000892BA9F54CEB51E0BE01695F7F4FCE01AE
:1014600001960E944707019751F5812C912C540158
:1014700000E010E029813A81809178019091790112
:10148000281739070CF0F4C44CEB51E0BE01695F3A
:101490007F4FCE0101960E9447076C010330110572
:1014A00009F0B0C44CEB51E0BE01695F7F4FCE0143
:1014B00001960E944707C816D90609F4A3C4E09113
:1014C0007601F091770182819381C697869708F023
:1014D00067C5848195814B97459708F061C5DF0109
:1014E00016967F0116ECE10EF11C20E030E040E0A2
:1014F00050E060E070E080E090E0CD90DC901197EB
:1015000019E0C11AD10818E0C116D10408F048C585
:101510001296CD90DC90139711E1C11AD1081DE00D
:10152000C116D10408F0B3C401E00E947C1621600A
:101530001496AE15BF0509F7209370013093710121
:10154000409372015093730100E20E94971620931A
:101550006E0130936F0185E090E090936D01809370
:101560006C0180E390E09093750180937401809109
:10157000700190917101A0917201B091730120915D
:101580006C018F3FEFEF9E07AE07BE0709F44BC01B
:1015900080934E0190934F01A0935001B09351015D
:1015A0003091740130935301873738E893073FED4A
:1015B000A30730E2B30709F0BDC4233009F0BAC471
:1015C00031E030935501109257018733F8EC9F07B3
:1015D000FFEDAF07F0E2BF0709F0BDC4233009F00B
:1015E000BAC431E03093590110925B01873538EA73
:1015F00093073FEDA30730E2B30709F0BDC42330E2
:1016000009F0BAC431E030935D0110925F01873E6A
:101610009841AF4DB04209F0C0C4233009F0BDC4B9
:1016200081E08093610182E080933E021092420249
:10163000A0906101A0926001C0905F01C0925E0124
:10164000F0905B01F0925A01D0905901D09258016C
:10165000B0905701B0925601E0905501E0925401CC
:10166000809153018093520180914E0190914F01DE
:10167000A0915001B091510180934A0190934B0188
:10168000A0934C01B0934D01A1100BC0E11009C013
:10169000D11007C0B11005C0F11003C081E08C2546
:1016A00001C080E080935C011092490160E087E016
:1016B0000E940F03AA2011F08A2D01C08F2D809364
:1016C0004801AA2011F06A2D01C06F2D8AE00E9406
:1016D0000F03AA2011F08A2D01C08C2D80934701A1
:1016E000AA2011F06A2D01C06C2D88E00E940F0322
:1016F0001092460160E089E00E940F03B11004C01F
:10170000AA2021F00A2D03C00B2D01C00E2D2EEBB7
:10171000029F80011124F11004C0CC2021F08C2DF7
:1017200003C08F2D01C08D2D3CE3839F000D111D43
:1017300011241093450100934401E11004C0FF20DF
:1017400021F08F2D03C08E2D01C08C2DACE38A9F1C
:10175000C0011124B11004C0A11003C0AD2C01C000
:10176000AB2CBEEBAB9E800D911D112490934301D9
:1017700080934201209140013091410102171307EB
:1017800039F420913E0130913F018217930769F0AF
:1017900080913D01882319F010923C010AC081E03C
:1017A00080933C0180933D0104C010923C01109253
:1017B0003D0180913C0180933B01882399F0109377
:1017C000410100934001B80185E00E947B036091D4
:1017D00042017091430170933F0160933E0186E0A6
:1017E0000E947B0381E0012B39F42091420130916A
:1017F0004301232B09F480E080933A01C11005C016
:10180000109239011092380106C081E090E0909367
:10181000390180933801DD2031F082E090E090932F
:10182000390180933801B11008C0809160018111A5
:1018300004C080915C01882331F083E090E09093B4
:10184000390180933801EE2031F084E090E09093EC
:10185000390180933801FF2031F085E090E09093CA
:1018600039018093380180913801909139012EE13E
:10187000289F8001299F100D1124085011091093F1
:1018800001010093000181E00A3511050CF080E0B0
:101890008093370180913601882319F01092360128
:1018A00015C080913401909135010817190771F026
:1018B000109335010093340181E0809336010A359D
:1018C000110539F081E08093330109C00A35110513
:1018D00031F410923301809136018111F3CFF090F1
:1018E0003301F09232018CE080933101F0923001AB
:1018F00010932F0100932E01FF2051F080912D01B4
:10190000811106C06CE070E086E193E00E94CC0497
:10191000F0922D01FF2041F0B80186E193E00E9492
:1019200049040E94100711C080912C0181110DC043
:10193000E0911603F0E0CF01880F991FE80FF91F1F
:10194000E75EFD4F80818F7B8083F0922C0184E0E5
:1019500080932B01F0922A01109329010093280112
:10196000FF2051F080912701811106C064E070E0F2
:1019700089E193E00E94CC04F0922701FF2041F01E
:10198000B80189E193E00E9449040E94100711C048
:101990008091260181110DC0E0911903F0E0CF0183
:1019A000880F991FE80FF91FE75EFD4F80818F7B3D
:1019B0008083F09226014AE0B801CE0101960E9490
:1019C0006A026AE171E0CE0107960E94A20260916C
:1019D0004201709143014AE0CE010D960E946A02D5
:1019E0006EE171E0CE0143960E94A2026091440133
:1019F000709145014AE0CE014F960E946A021A8E0C
:101A0000198E1C8E1B8E1E8E1D8EBE01615E7F4F39
:101A1000CE0149960E944E02BE016D5E7F4FCE01FF
:101A200049960E941C02BE01635F7F4F0E941C0208
:101A3000BE01695F7F4F0E941C02BE016F5F7F4F36
:101A40000E941C02FC0124813581409114035091B5
:101A500015032417350729F58081918160911003C2
:101A600070911103009719F061157105A9F46115C2
:101A7000710551F02115310539F0DB018C9190E0B1
:101A80009195819591090AC0009769F0232B59F02F
:101A9000FC01808190E002C00E94BE1811E0892BF9
:101AA00019F010E001C011E0CE0149960E946502D4
:101AB000CE014F960E946502CE0143960E946502B8
:101AC000CE010D960E946502CE0107960E94650226
:101AD000CE0101960E946502111175C0609100014E
:101AE000709101014AE0CE0101960E946A026AE10A
:101AF00071E0CE0107960E94A202609142017091AE
:101B000043014AE0CE010D960E946A026EE171E047
:101B1000CE0143960E94A20260914401709145015A
:101B20004AE0CE014F960E946A021A8E198E1C8ED0
:101B30001B8E1E8E1D8EBE01615E7F4FCE014996AB
:101B40000E944E02BE016D5E7F4FCE0149960E94FB
:101B50001C02BE01635F7F4F0E941C02BE01695FD1
:101B60007F4F0E941C02BE016F5F7F4F0E941C02CC
:101B7000DC0114964D915C9115976D917C918CE7E9
:101B800091E00E948D0042E050E062E271E08CE75B
:101B900091E00E948D00CE0149960E946502CE011F
:101BA0004F960E946502CE0143960E946502CE01C7
:101BB0000D960E946502CE0107960E946502CE0135
:101BC00001960E94650260910001709101014AE056
:101BD000CE0101960E946A026AE171E0CE01079689
:101BE0000E94A20260914201709143014AE0CE013D
:101BF0000D960E946A026EE171E0CE0143960E944A
:101C0000A20260914401709145014AE0CE014F96D5
:101C10000E946A021A8E198E1C8E1B8E1E8E1D8EBD
:101C2000BE01615E7F4FCE0149960E944E02BE0109
:101C30006D5E7F4FCE0149960E941C02BE01635F1C
:101C40007F4F0E941C02BE01695F7F4F0E941C02F1
:101C5000BE016F5F7F4F0E941C02BC0180E193E0D8
:101C60000E944E02CE0149960E946502CE014F9617
:101C70000E946502CE0143960E946502CE010D9638
:101C80000E946502CE0107960E946502CE01019670
:101C90000E9465020E948D011DCA809149029091A7
:101CA0004A02825491098E9708F047CA80E090E07A
:101CB00040E050E0BA01FC01E55BFD4F208131813D
:101CC0002950310929303105B0F037CA80914B02D3
:101CD00090914C020997099708F02ACA1092750151
:101CE00010927401409270015092710160927201E1
:101CF000709273011FC0FC01E35BFD4F20813181B5
:101D00002751310922313105C0F4440F551F661F98
:101D1000771F416004968038910569F6309275010D
:101D2000209274014093700150937101609372018D
:101D30007093730183E090E0F8C0208131812650D8
:101D400031092730310508F0F8C9440F551F661FC7
:101D5000771FE0CF20813181235131092F303105A8
:101D600078F0208131812A5031092930310508F07D
:101D700038CACC0CDD1CEE1CFF1C0296349604CA3B
:101D8000CC0CDD1CEE1CFF1C6894C0F8F6CF8091D3
:101D9000490290914A02C697869708F073CAEDE40B
:101DA000F2E083E090E0C12CD12C76014BCA208177
:101DB00031812C5031092A30310508F063CACC0C2E
:101DC000DD1CEE1CFF1C3CCA4D915C914C5051092E
:101DD0004B30510508F097CACC0CDD1CEE1CFF1CE3
:101DE000408151813496435051094530510508F0E6
:101DF00070CA029659CACC0CDD1CEE1CFF1C6894FC
:101E0000C0F8EECF4CEB51E0BE01695F7F4FCE01D1
:101E100001960E9447077C010330110569F44CEBE1
:101E200051E0BE01695F7F4FCE0101960E944707D6
:101E3000E816F90609F043CBC114D10459F4EA9429
:101E4000EF2809F03CCB880C991CAA1CBB1C689499
:101E500080F80BC0CA94CD2809F031CBEF2809F0E7
:101E60002ECB880C991CAA1CBB1C0F5F1F4F02CBEA
:101E7000109375010093740180927001909271012A
:101E8000A0927201B092730182E090E04EC012966F
:101E9000CD90DC90139714E0C11AD10815E0C1165B
:101EA000D10408F07DC001E00E947C1641CBA8015E
:101EB00042505109DA014D915C9149505109483025
:101EC000510508F01BC1BC016F5F7F4FD8014D91D8
:101ED0005C91475051094730510508F00AC3220F61
:101EE000331F216002960C5F1F4F4091420250E069
:101EF0004450510984179507D4F201979595879519
:101F000090937501809374018A970CF4F7C0C9010E
:101F1000330FAA0BBB0B8093700190937101A093B8
:101F20007201B093730189E090E090936D0180930A
:101F30006C011DCB10925501873BE8E49E07EFED45
:101F4000AE07E0E2BE0709F03ECB233009F03BCB01
:101F500031E03093570110925901873D18E2910703
:101F60001FEDA10710E2B10709F03ECB233009F0C5
:101F70003BCB31E030935B0110925D018739E8E69D
:101F80009E07EFEDAE07E0E2BE0709F03ECB23303F
:101F900009F03BCB81E080935F011092610143CB5C
:101FA00080914202893370F182819381895791092E
:101FB0008335910508F448C125C0D90112966D9169
:101FC0007C911397665171096131710508F068C100
:101FD000D701C601880F991FAA1FBB1F6C017D0185
:101FE0006894C0F84E5F5F4F2C5F3F4F4B335105F5
:101FF00009F439C1D9016D917C916A507109693038
:102000007105D8F280914202823231F4828193814B
:102010000A97099708F454C18281938189579109DD
:1020200083359105D0F4809142028132B0F08481F1
:102030009581CA97899788F49F012A5F3F4FC12CE9
:10204000D12C760143E050E0D9016D917C916A502A
:1020500071096930710508F44FC1828193818C54F4
:102060009109C59778F480914202843031F48481DB
:1020700095818097479708F49FC1809142028434EC
:1020800008F081C180914202863460F1828193819F
:102090000C970B9708F4D9C125C0D90112966D9100
:1020A0007C9113976E5171096731710508F0E8C191
:1020B000D701C601880F991FAA1FBB1F6C017D01A4
:1020C0006894C0F84E5F5F4F2C5F3F4F4534510519
:1020D00009F4E5C1D9016D917C916C5071096B30A7
:1020E0007105D8F280914202883540F08281938157
:1020F000855891098B35910508F4ECC18091420215
:102100008032E1F48281938106970697B8F4848146
:1021100095810997099790F49F012A5F3F4FBF016E
:10212000625C7F4FC12CD12C7601D9014D915C911D
:10213000465051094630510508F4E8C12091780114
:102140003091790138A72FA3263031050CF46BCAE2
:102150008F010A5F1F4F55ECC52E5DE9D52E5CE15E
:10216000E52E51E8F52E83E090E09EA38DA3D801E3
:102170006D917C91F8013497A080B18080E090E06F
:102180000E94921369A77AA78BA79CA7B50180E04C
:1021900090E00E9492134B015C012DEC3CEC4CE46E
:1021A0005FE30E94F3139B01AC0169A57AA58BA59F
:1021B0009CA50E948D1387FD19C02DEC3CEC4CE4CE
:1021C0005FE369A57AA58BA59CA50E94F3139B01EB
:1021D000AC01C501B4010E948D13E82F880FFF0BDD
:1021E000EE27FF0FEE1FFF27319602C0E0E0F0E080
:1021F000A701960163E971E080E091E00E9460161A
:102200006F01FF0FEE08FF08C626D726E826F9263D
:10221000EDA1FEA13196FEA3EDA30E5F1F4F2FA1EE
:1022200038A5E217F30709F0A2CFC0927001D0924F
:102230007101E0927201F092730130927501209267
:1022400074018FEF9FEF71CE84819581CA97899732
:1022500008F0D8CE9F012A5F3F4FC12CD12C7601C8
:1022600043E050E0C7CE9F012A583F4FD9012D913E
:102270003C912A5031092930310508F0C3CE2CE1B8
:1022800030E03093750120937401C0927001D092B8
:102290007101E0927201F09273018AE090E045CE04
:1022A000D90112966D917C91139766507109673030
:1022B000710508F0A7CECC0CDD1CEE1CFF1C92CEE5
:1022C00020914202CF01820F911D820F911DDC01EE
:1022D00012978D919C910A97099708F09DCE1092C4
:1022E00075011092740140927001509271016092D8
:1022F00072017092730144C1D90112966D917C9163
:102300001397665171096131710568F5D701C601EE
:10231000880F991FAA1FBB1F6C017D016894C0F82C
:102320004E5F5F4F2C5F3F4F4332510509F08CCE1B
:102330009F012A5B3F4FD9012D913C912A503109D1
:102340002930310508F089CE20E130E03093750165
:1023500020937401C0927001D0927101E0927201D9
:10236000F09273010DC1D90112966D917C91139772
:10237000665071096730710508F06FCECC0CDD1C1A
:10238000EE1CFF1CCDCF8481958189549109C397A0
:1023900008F078CE9F012A5F3F4FBF016A577F4FF9
:1023A000C12CD12C7601D9014D915C914950510934
:1023B00049305105A0F066CE86819781099709972B
:1023C00008F05BCE1092750110927401409270017A
:1023D000509271016092720170927301D4C0D90160
:1023E00012964D915C911397465151094131510517
:1023F000E0F4D701C601880F991FAA1FBB1F6C010B
:102400007D016894C0F82C5F3F4F2617370759F6B7
:102410003092750120927401C0927001D0927101C6
:10242000E0927201F0927301AEC0D90112964D9103
:102430005C911397465051094730510508F022CE60
:10244000CC0CDD1CEE1CFF1CDECF8481958109972E
:10245000099708F047CE868197818C974F9708F0AF
:1024600041CE8085918589974D9708F03BCE9F019D
:10247000265F3F4FC12CD12C760145E050E02ACE9B
:1024800012966D917C9113976950710969307105AD
:1024900008F028CECC0CDD1CEE1CFF1C13CE9F01D7
:1024A00026573F4FD9012D913C912C5031092B30AB
:1024B000310508F017CE3092750120927401C09258
:1024C0007001D0927101E0927201F092730188E084
:1024D00090E02BCD84819581825491098E9708F0EC
:1024E0000DCE8F01045C1F4F8DE190E020E030E0C5
:1024F000FCCCD8014D915C914851510942315105B4
:1025000010F0CB01FACC220F331FECCCD90112967C
:102510004D915C911397495151094331510528F16F
:1025200012964D915C9113974950510949305105CC
:1025300008F004CECC0CDD1CEE1CFF1C2C5F3F4FC2
:102540002617370709F0F1CD2EE030E03093750102
:1025500020937401C0927001D0927101E0927201D7
:10256000F09273018FE090E0E0CCD701C601880FB4
:10257000991FAA1FBB1F6C017D016894C0F8DECFB4
:1025800086E090E0D2CC87E090E0CFCC80E193E091
:102590000C94650210927F0110927E0188EE93E008
:1025A000A0E0B0E08093800190938101A09382012C
:1025B000B09383018CE091E090937D0180937C0146
:1025C00085EC90E0909389018093880184EC90E001
:1025D00090938B0180938A0180EC90E090938D0121
:1025E00080938C0181EC90E090938F0180938E0119
:1025F00082EC90E0909391018093900186EC90E0C2
:1026000090939301809392011092950110929601FC
:1026100010929701109298018DE080933F021092E2
:10262000410280913D028C30A0F491E0980F90938C
:102630003D028093190390E0FC01EE0FFF1F8E0F07
:102640009F1FFC01E75EFD4F88EB9BE09283818337
:1026500003C08FEF8093190380913D028C30A0F46A
:1026600091E0980F90933D028093160390E0FC0157
:10267000EE0FFF1F8E0F9F1FFC01E75EFD4F88EBE3
:102680009BE09283818303C08FEF8093160364E203
:1026900071E080E193E00C94A2024532510520F4F0
:1026A000423010F00C945813FB011082CB010895B6
:1026B000BB274A3031F4992322F4BDE290958195ED
:1026C0009F4F0C946413BB27FB015527AA27880F43
:1026D000991FAA1FA41710F0A41B83955051B9F796
:1026E000A05DAA3308F0A95DA193009779F7B11115
:1026F000B1931192CB010C947D13DC01FC01672F87
:1027000071917723E1F7329704C07C916D937083C8
:102710006291AE17BF07C8F308950E94CF1308F463
:1027200081E00895E89409C097FB3EF49095809568
:10273000709561957F4F8F4F9F4F9923A9F0F92F87
:1027400096E9BB279395F695879577956795B79505
:10275000F111F8CFFAF4BB0F11F460FF1BC06F5FEB
:102760007F4F8F4F9F4F16C0882311F096E911C0FD
:10277000772321F09EE8872F762F05C0662371F01E
:1027800096E8862F70E060E02AF09A95660F771F32
:10279000881FDAF7880F9695879597F90895990F0E
:1027A0000008550FAA0BE0E8FEEF16161706E8071B
:1027B000F907C0F012161306E407F50798F0621B3C
:1027C000730B840B950B39F40A2661F0232B242B11
:1027D000252B21F408950A2609F4A140A6958FEF30
:1027E000811D811D08950E9406140C9477140E9487
:1027F000691438F00E94701420F0952311F00C94A5
:1028000060140C94661411240C94AB140E94881468
:1028100070F3959FC1F3950F50E0551F629FF00133
:10282000729FBB27F00DB11D639FAA27F00DB11D4C
:10283000AA1F649F6627B00DA11D661F829F2227D5
:10284000B00DA11D621F739FB00DA11D621F839F5C
:10285000A00D611D221F749F3327A00D611D231F32
:10286000849F600D211D822F762F6A2F11249F5780
:1028700050409AF0F1F088234AF0EE0FFF1FBB1F83
:10288000661F771F881F91505040A9F79E3F510542
:1028900080F00C9460140C94AB145F3FE4F3983E0A
:1028A000D4F3869577956795B795F795E7959F5FEC
:1028B000C1F7FE2B880F911D9695879597F908957E
:1028C00097F99F6780E870E060E008959FEF80ECE3
:1028D000089500240A941616170618060906089586
:1028E00000240A9412161306140605060895092EEC
:1028F0000394000C11F4882352F0BB0F40F4BF2B5B
:1029000011F460FF04C06F5F7F4F8F4F9F4F08959A
:1029100057FD9058440F551F59F05F3F71F0479590
:10292000880F97FB991F61F09F3F79F08795089575
:10293000121613061406551FF2CF4695F1DF08C094
:10294000161617061806991FF1CF869571056105B1
:1029500008940895E894BB2766277727CB0197F959
:102960000895052E97FB1EF400940E94C81457FD8D
:1029700007D00E941A1507FC03D04EF40C94C8141B
:1029800050954095309521953F4F4F4F5F4F08959B
:1029900090958095709561957F4F8F4F9F4F0895CB
:1029A0000E943C15A59F900DB49F900DA49F800D93
:1029B000911D11240895B7FF0C94D0140E94D014D7
:1029C000821B930B08952F923F924F925F926F92CA
:1029D0007F928F929F92AF92BF92CF92DF92EF92AF
:1029E000FF920F931F93CF93DF93CDB7DEB7CA1B30
:1029F000DB0B0FB6F894DEBF0FBECDBF09942A885B
:102A0000398848885F846E847D848C849B84AA8402
:102A1000B984C884DF80EE80FD800C811B81AA818F
:102A2000B981CE0FD11D0FB6F894DEBF0FBECDBF5A
:102A3000ED010895A1E21A2EAA1BBB1BFD010DC0DA
:102A4000AA1FBB1FEE1FFF1FA217B307E407F5075E
:102A500020F0A21BB30BE40BF50B661F771F881F3A
:102A6000991F1A9469F760957095809590959B01D0
:102A7000AC01BD01CF010895A29FB001B39FC00179
:102A8000A39F700D811D1124911DB29F700D811D9A
:102A90001124911D08955058BB27AA270E94631541
:102AA0000C9477140E94691438F00E94701420F07E
:102AB00039F49F3F19F426F40C9466140EF4E09553
:102AC000E7FB0C946014E92F0E94881458F3BA179E
:102AD000620773078407950720F079F4A6F50C9434
:102AE000AA140EF4E0950B2EBA2FA02D0B01B901FC
:102AF00090010C01CA01A0011124FF27591B99F074
:102B0000593F50F4503E68F11A16F040A22F232F7F
:102B1000342F4427585FF3CF469537952795A795CF
:102B2000F0405395C9F77EF41F16BA0B620B730B76
:102B3000840BBAF09150A1F0FF0FBB1F661F771FE7
:102B4000881FC2F70EC0BA0F621F731F841F48F49C
:102B5000879577956795B795F7959E3F08F0B0CF25
:102B60009395880F08F09927EE0F9795879508950C
:102B70000E94CC150C9477140E94701458F00E9497
:102B8000691440F029F45F3F29F00C94601451114E
:102B90000C94AB140C9466140E94881468F3992367
:102BA000B1F3552391F3951B550BBB27AA27621749
:102BB0007307840738F09F5F5F4F220F331F441F56
:102BC000AA1FA9F335D00E2E3AF0E0E832D091508A
:102BD0005040E695001CCAF72BD0FE2F29D0660F77
:102BE000771F881FBB1F261737074807AB07B0E8BA
:102BF00009F0BB0B802DBF01FF2793585F4F3AF0C0
:102C00009E3F510578F00C9460140C94AB145F3F18
:102C1000E4F3983ED4F3869577956795B795F79545
:102C20009F5FC9F7880F911D9695879597F908952D
:102C3000E1E0660F771F881FBB1F621773078407C9
:102C4000BA0720F0621B730B840BBA0BEE1F88F7D8
:102C5000E09508950E9431166894B1110C94AB145C
:102C600008950E94901488F09F5798F0B92F9927E3
:102C7000B751B0F0E1F0660F771F881F991F1AF067
:102C8000BA95C9F714C0B13091F00E94AA14B1E00E
:102C900008950C94AA14672F782F8827B85F39F00D
:102CA000B93FCCF3869577956795B395D9F73EF400
:102CB00090958095709561957F4F8F4F9F4F0895A8
:102CC000DB018F939F930E94D014BF91AF91A29F7D
:102CD000800D911DA39F900DB29F900D112408951A
:102CE000991B79E004C0991F961708F0961B881F5E
:102CF0007A95C9F7809508950F93083090F0982F32
:102D0000872F762F652F542F432F322F22270850DD
:102D1000F4CF220F331F441F551F661F771F881FD4
:102D2000991F0A95B2F70F91089597FB10F8169422
:102D300000080F93083098F00850232F342F452FA8
:102D4000562F672F782F892F902DF4CF05949795C4
:102D500087957795679557954795379527950A9560
:102D6000AAF70F910895EE0FFF1F0590F491E02D43
:102D70000994CF93DF938230910510F482E090E0C4
:102D8000E0911F03F091200320E030E0C0E0D0E0AC
:102D9000309711F14081518148175907C0F0481709
:102DA000590761F482819381209719F09B838A836C
:102DB0002BC09093200380931F0326C0211531055B
:102DC00019F04217530718F49A01BE01DF01EF0111
:102DD0000280F381E02DDCCF2115310509F1281B9C
:102DE000390B2430310590F412968D919C911397F4
:102DF0006115710521F0FB019383828304C09093D8
:102E0000200380931F03FD01329644C0FD01E20FB1
:102E1000F31F81939193225031092D933C933AC033
:102E200020911D0330911E03232B41F420910401B6
:102E30003091050130931E0320931D032091020160
:102E4000309103012115310541F42DB73EB7409172
:102E5000060150910701241B350BE0911D03F091F1
:102E60001E03E217F307A0F42E1B3F0B28173907A8
:102E700078F0AC014E5F5F4F2417350748F04E0FD6
:102E80005F1F50931E0340931D038193919302C0D3
:102E9000E0E0F0E0CF01DF91CF9108950F931F9311
:102EA000CF93DF93009709F48CC0FC013297138213
:102EB000128200911F03109120030115110581F466
:102EC00020813181820F931F20911D0330911E03B9
:102ED0002817390779F5F0931E03E0931D0371C09D
:102EE000D80140E050E0AE17BF0750F412962D9184
:102EF0003C911397AD012115310509F1D901F3CFAB
:102F00009D01DA013383228360817181860F971FCF
:102F10008217930769F4EC0128813981260F371F46
:102F20002E5F3F4F318320838A819B8193838283ED
:102F3000452B29F4F0932003E0931F0342C013961E
:102F4000FC93EE931297ED01499159919E01240F44
:102F5000351FE217F30771F480819181840F951F6B
:102F6000029611969C938E938281938113969C93E3
:102F70008E931297E0E0F0E0D80112968D919C912B
:102F80001397009719F0F8018C01F6CF8D919C9161
:102F900098012E5F3F4F820F931F20911D033091A8
:102FA0001E032817390769F4309729F4109220037B
:102FB00010921F0302C01382128210931E0300930B
:102FC0001D03DF91CF911F910F910895A0E0B0E014
:102FD000ECEEF7E10C94E714EC01009721F4CB013F
:102FE0000E94B916B8C0FC01E60FF71F9C012250E1
:102FF0003109E217F30708F4ACC0D9010D911C9117
:10300000119706171707B0F00530110508F49FC097
:10301000C80104978617970708F499C00250110950
:10302000061B170B019311936D937C93CF010E94A4
:103030004E178DC05B01A01AB10A4C01800E911E83
:10304000A0911F03B091200340E050E0E12CF12C4F
:10305000109709F44AC0A815B905D1F56D907C9078
:103060001197630182E0C80ED11CCA14DB0480F101
:10307000A3014A195B096A0182E0C80ED11C1296AD
:10308000BC9012971396AC91B5E0CB16D10440F0EA
:10309000B282A38351834083D9016D937C930AC08C
:1030A0000E5F1F4FC301800F911FF9019183808331
:1030B000EB2DFA2FE114F10431F0D7011396FC93B4
:1030C000EE93129744C0F0932003E0931F033FC098
:1030D0008D919C9111974817590708F4AC017D0117
:1030E00012960D90BC91A02DB3CF80911D039091AD
:1030F0001E0388159905E1F446175707C8F4809117
:10310000020190910301009741F48DB79EB7409161
:10311000060150910701841B950BE817F907C8F4C5
:10312000F0931E03E0931D03F901718360830FC0C8
:10313000CB010E94B9167C01009759F0A801BE018D
:103140000E94B518CE010E944E17C70104C0CE01DF
:1031500002C080E090E0CDB7DEB7EEE00C9403153E
:1031600081E090E0F8940C94CE18FB01DC0102C0E1
:1031700001900D9241505040D8F70895FB01DC01B9
:103180008D91019080190110D9F3990B0895FB01DD
:10319000DC0101900D920020E1F7089510E0C2E6F5
:1031A000D0E004C0FE010E94B3162196C336D107B9
:0631B000C9F7F894FFCFFF
:1031B6005A000000210380000000000024018D0059
:1031C600BC006B01ED00CB00DF00203B2000202D72
:0631D60020000D0A0000BC
:00000001FF
