:100000000C9463000C948B000C948B000C94B20441
:100010000C94B2040C94B2040C948B000C948B00DE
:100020000C948B000C948B000C948B000C948B0024
:100030000C948B000C948B000C948B000C948B0014
:100040000C9468040C948B000C9436040C941004EB
:100050000C948B000C948B000C948B000C948B00F4
:100060000C948B000C948B0000000008000201002F
:100070000003040700000000000000000000000072
:10008000250028002B0000000000240027002A0083
:1000900000000000230026002900040404040404D6
:1000A0000404020202020202030303030303010227
:1000B00004081020408001020408102001020408F6
:1000C00010202C05450911241FBECFEFD8E0DEBF5C
:1000D000CDBF22E0AAE3B1E001C01D92AB38B20768
:1000E000E1F711E0A0E0B1E0E4E2F8E102C0059040
:1000F0000D92AA33B107D9F710E0C2E6D0E004C0F0
:100100002197FE010E94F309C136D107C9F70E9469
:1001100025060C94050C0C9400000895CF92DF92F4
:10012000EF92FF920F931F93CF93DF936C017A01AD
:100130008B01C0E0D0E0CE15DF0589F0D8016D91CC
:100140008D01D601ED91FC910190F081E02DC60169
:100150000995892B11F47E0102C02196ECCFC701CD
:10016000DF91CF911F910F91FF90EF90DF90CF9093
:100170000895FC01538D448D252F30E0842F90E0AD
:10018000821B930B541710F0CF9608950197089592
:10019000FC01918D828D981761F0828DDF01A80F8F
:1001A000B11D5D968C91928D9F5F9F73928F90E0B1
:1001B00008958FEF9FEF0895FC01918D828D981720
:1001C00031F0828DE80FF11D858D90E008958FEF5D
:1001D0009FEF0895FC01918D228D892F90E0805C26
:1001E0009F4F821B91098F739927089583EB91E0AC
:1001F0000E94EA0021E0892B09F420E0822F089573
:10020000FC01848DDF01A80FB11DA35ABF4F2C91B3
:10021000848D90E001968F739927848FA689B78982
:100220002C93A089B1898C9180648C93938D848D5B
:10023000981306C00288F389E02D80818F7D80832A
:100240000895EF92FF920F931F93CF93DF93EC01EA
:1002500081E0888F9B8D8C8D981305C0E889F98982
:10026000808185FD24C0F62E0B8D10E00F5F1F4F9F
:100270000F731127E02E8C8DE8120CC00FB607FC0F
:10028000FACFE889F989808185FFF5CFCE010E94F8
:100290000001F1CF8B8DFE01E80FF11DE35AFF4FF6
:1002A000F0820B8FEA89FB898081806207C0EE892A
:1002B000FF896083E889F98980818064808381E097
:1002C00090E0DF91CF911F910F91FF90EF900895F3
:1002D000CF93DF93EC01888D8823C9F0EA89FB89ED
:1002E000808185FD05C0A889B9898C9186FD0FC0E4
:1002F0000FB607FCF5CF808185FFF2CFA889B989B9
:100300008C9185FFEDCFCE010E940001E7CFDF91F8
:10031000CF91089580E090E0892B29F00E94F600AB
:1003200081110C940000089590E0FC01E859FF4F02
:100330003491FC01E255FF4F2491FC01E656FF4F3A
:10034000E491EE2309F43BC0332339F1333091F0CB
:1003500038F43130A9F0323001F584B58F7D12C008
:10036000373091F03830A1F03430B9F4809180000A
:100370008F7D03C0809180008F77809380000DC0B7
:1003800084B58F7784BD09C08091B0008F7703C09A
:100390008091B0008F7D8093B000F0E0EE0FFF1FE2
:1003A000E458FF4FA591B4918FB7F894EC91611187
:1003B00003C020952E2301C02E2B2C938FBF0895B0
:1003C0002FB7F89460917F01709180018091810135
:1003D000909182012FBF089520918501309186016F
:1003E0002817390771F4909183018091840198173F
:1003F00041F0E0918301F0E0E65CFE4F808190E007
:1004000008958FEF9FEF089508951F93CF93DF9383
:10041000DC015C962D913C915D972115310539F4F5
:1004200081E090E013969C938E9312973DC0519675
:10043000ED91FC91529750969C915097892F809501
:100440001FB75E964C915E9741FB772770F941FD8F
:100450006095F8944081772311F0492B01C048231F
:100460004083E9012197F1F748E0508160FF02C025
:10047000592B01C058235083E9012197F1F7669564
:10048000415099F7772321F090818923808303C01D
:100490008081982B90831FBF5C968D919C915D9776
:1004A0000197F1F721E030E0C901DF91CF911F9171
:1004B000089520918501309186012817390771F43C
:1004C000809184012091830190E0805C9F4F821B8A
:1004D000910960E470E00E94B009089580E090E026
:1004E0000895209185013091860128173907B9F4C4
:1004F0009091830180918401981789F0E0918301A4
:10050000F0E0E65CFE4F80812091830130E02F5FB8
:100510003F4F2F7333272093830190E008958FEF8F
:100520009FEF0895089580E090E008952F923F9204
:100530004F925F926F927F928F929F92AF92BF92F3
:10054000CF92DF92EF92FF920F931F93CF93DF939F
:10055000CDB7DEB764970FB6F894DEBF0FBECDBF40
:100560006B017C01298B3A8B4B8B5C8B0E94E001E9
:100570006C157D058E059F0578F049885A886B8833
:100580007C884C0C5D1C6E1C7F1CE1E064157505BD
:1005900086059705C0F536C02B013C0169835A8258
:1005A0006B827C82160127012FEF3FEF4FEF5FEF49
:1005B00060E070E080E090E056016201E12CF12CF7
:1005C00000E010E00E94CD09E988FA880B891C89B7
:1005D0001701280157016201E12CF12C00E010E025
:1005E0000E94C40959016A017B018C01E1E0298163
:1005F0003A814B815C8160E070E080E090E00E9495
:10060000D6090CF4E0E08E2F64960FB6F894DEBFA6
:100610000FBECDBFDF91CF911F910F91FF90EF9053
:10062000DF90CF90BF90AF909F908F907F906F9012
:100630005F904F903F902F9008950E94F00B0F9382
:100640001F93CF93DF938C01EB01FC01808191819B
:100650000097B1F0688179816115710579F0428167
:1006600053812C813D814217530740F00E94FE0BBD
:100670008C819D81F8019583848313C00E948E0A2A
:1006800088819981F801918380838A819B819383FA
:1006900082838C819D8195838483198218821B8239
:1006A0001A821D821C82DF91CF911F910F910895B4
:1006B0000F931F93CF93DF93EC018881998100976B
:1006C00029F02A813B812617370788F48B016F5F59
:1006D0007F4F0E94260B009761F0998388831B83CC
:1006E0000A832C813D81232B11F4FC01108281E0CF
:1006F00001C080E0DF91CF911F910F910895EF929B
:10070000FF920F931F93CF93DF9300D0CDB7DEB747
:100710008C0169831A82FC01E480F580FFEFEF1AF7
:10072000FF0AB7010E945803882381F0F801208155
:10073000318184819581BE016F5F7F4F820F931F4E
:100740000E94FE0BF801F582E48281E00F900F9089
:10075000DF91CF911F910F91FF90EF900895EF924D
:10076000FF920F931F93CF93DF93EC017B018A01DC
:10077000BA010E9458032881398181110DC02115C9
:10078000310519F0C9010E948E0A198218821D8252
:100790001C821B821A8206C01D830C83B701C9010B
:1007A0000E94FE0BCE01DF91CF911F910F91FF9020
:1007B000EF900895CF93DF93EC01FB018617970725
:1007C000B1F0608171816115710529F04481558115
:1007D0000E94AF030CC088819981009711F00E949C
:1007E0008E0A198218821D821C821B821A82CE01F7
:1007F000DF91CF910895FC01118210821382128241
:10080000158214826115710551F0FB0101900020E1
:10081000E9F73197AF01461B570B0C94AF030895CE
:100820001F920F920FB60F9211242F933F934F9365
:100830005F936F937F938F939F93AF93BF93EF9348
:10084000FF9383EB91E00E940001FF91EF91BF9134
:10085000AF919F918F917F916F915F914F913F9158
:100860002F910F900FBE0F901F9018951F920F920F
:100870000FB60F9211242F938F939F93EF93FF93B3
:10088000E091C301F091C4018081E091C901F09130
:10089000CA0182FD12C090818091CC018F5F8F735D
:1008A0002091CD01821751F0E091CC01F0E0ED54A0
:1008B000FE4F958F8093CC0101C08081FF91EF9115
:1008C0009F918F912F910F900FBE0F901F901895B1
:1008D0001F920F920FB60F9211242F933F938F9375
:1008E0009F93AF93BF9380917F0190918001A091DE
:1008F0008101B091820130917E0123E0230F2D37D9
:1009000020F40196A11DB11D05C026E8230F029613
:10091000A11DB11D20937E0180937F0190938001E2
:10092000A0938101B093820180917A0190917B0123
:10093000A0917C01B0917D010196A11DB11D809314
:100940007A0190937B01A0937C01B0937D01BF91CC
:10095000AF919F918F913F912F910F900FBE0F906C
:100960001F9018951F920F920FB60F9211242F937C
:100970003F934F935F936F937F938F939F93AF9327
:10098000BF93EF93FF93E0918501F091860130973B
:1009900009F451C0968DA685B785858591FF04C061
:1009A0009C91892329F447C09C91892309F043C075
:1009B000A389B4899C918589809589238C938689A4
:1009C00097890197F1F7608D718DA685B78555855B
:1009D00038E020E0CB010197F1F7822F90E0959568
:1009E0008795282F4C91452309F02068315091F7C5
:1009F000868D81FD20958091840190E001968F7312
:100A0000992730918301381749F0A0918401B0E013
:100A1000A65CBE4F2C938093840103C0868D8160B9
:100A2000868F828D938D0197F1F7A389B4899C916C
:100A30008589892B8C93FF91EF91BF91AF919F9105
:100A40008F917F916F915F914F913F912F910F9077
:100A50000FBE0F901F901895CF93DF931092B601A1
:100A60001092B50188EE93E0A0E0B0E08093B7016A
:100A70009093B801A093B901B093BA012CE031E092
:100A80003093B4012093B30125EC30E03093C001E2
:100A90002093BF0124EC30E03093C2012093C101C8
:100AA00020EC30E03093C4012093C30121EC30E00E
:100AB0003093C6012093C50122EC30E03093C80189
:100AC0002093C70126EC30E03093CA012093C9017E
:100AD0001092CC011092CD011092CE011092CF0154
:100AE00010926B0210926A0280936C0290936D02D6
:100AF000A0936E02B0936F028EE191E09093690231
:100B00008093680210927F0210927E0210928102FE
:100B1000109280021092830210928202109285023B
:100B200010928402609186026E7F6D7F60938602D0
:100B30006695617081E0682783E00E949401E1EB93
:100B4000F0E02491EDE9F0E08491882399F090E0C1
:100B5000880F991FFC01EA57FF4FA591B491FC0142
:100B6000E458FF4F859194918FB7F894EC91E22B64
:100B7000EC938FBFE1EBF0E0E491E0937802EDE9D4
:100B8000F0E0E491F0E0EE0FFF1FE458FF4F859195
:100B9000949190937A0280937902E0EBF0E02491B3
:100BA000ECE9F0E084918823C1F090E0880F991F70
:100BB000FC01EA57FF4FC591D491FC01E458FF4F67
:100BC000A591B4919FB7F8948881E22FE0958E2388
:100BD00088838C91E823EC939FBF8091860281FDEE
:100BE00004C061E082E00E94940182E0809374027C
:100BF000E0EBF0E0E491E0937502ECE9F0E0E491E1
:100C0000F0E0EE0FFF1FE057FF4F85919491909316
:100C100077028093760269E371E082E692E00E94B7
:100C2000FB0369E371E08CE592E00E94FB0369E35A
:100C300071E086E592E00E94FB0369E371E080E5E4
:100C400092E0DF91CF910C94FB03CF93DF9300D020
:100C500000D000D0CDB7DEB7789484B5826084BD73
:100C600084B5816084BD85B5826085BD85B58160B0
:100C700085BD80916E00816080936E00109281002E
:100C800080918100826080938100809181008160E9
:100C900080938100809180008160809380008091AA
:100CA000B10084608093B1008091B0008160809336
:100CB000B00080917A00846080937A0080917A00FD
:100CC000826080937A0080917A00816080937A00BC
:100CD00080917A00806880937A001092C100E09140
:100CE000C301F091C40182E08083E091BF01F091E3
:100CF000C0011082E091C101F091C20180E18083C6
:100D00001092CB01E091C701F091C80186E0808389
:100D1000E091C501F091C601808180618083E091FE
:100D2000C501F091C601808188608083E091C50192
:100D3000F091C601808180688083E091C501F091C7
:100D4000C60180818F7D808310928302109282027F
:100D5000109281021092800210927F0210927E0205
:100D60008DE991E0909385028093840290917402C2
:100D7000963108F057C02DEB30E030937F0220937E
:100D80007E022BE931E030938102209380022CE235
:100D900031E03093830220938202209168009830E2
:100DA00050F031E09E3008F430E081E001C0880F5F
:100DB0003A95EAF701C084E0822B8093680098306E
:100DC00038F09E3040F0963148F020E030E008C026
:100DD0002DE630E005C02BE630E002C02CE630E026
:100DE00030937C0220937B02983030F481E001C084
:100DF000880F9A95EAF70EC0292F30E09E3018F43C
:100E00002850310902C02E50310981E001C0880FFD
:100E10002A95EAF780937D02809184029091850261
:100E20000197F1F78091820290918302892B49F119
:100E3000E0918501F091860182E0E836F80709F13A
:100E4000309739F0A389B4899C918589809589234D
:100E50008C93809186028E7F80938602109284010B
:100E60001092830188E692E0909386018093850139
:100E7000E0917B02F0917C02908180917D02892B30
:100E80008083EE24E394F12C11E08091B1019091E4
:100E9000B201892B29F01092B2011092B10113C056
:100EA00083EB91E00E94EA00892B69F0F092B20195
:100EB000E092B10183EB91E00E94C800682F86E5C3
:100EC00092E00E947F038091AF019091B001892B45
:100ED00029F01092B0011092AF0113C088E692E0A1
:100EE0000E945902892B69F0F092B001E092AF01A3
:100EF00088E692E00E947102682F80E592E00E94ED
:100F00007F038091AE01882399F06091AA017091CE
:100F1000AB018091AC019091AD0120ED37E040E054
:100F200050E00E949602882379F01093A9010CC02A
:100F30001093AE010E94E0016093AA017093AB018F
:100F40008093AC019093AD018091A9018823B9F001
:100F50008091A801811115C04AE050E06CE271E077
:100F600083EB91E00E948E0042E050E067E371E085
:100F700083EB91E00E948E001093A80102C01092B2
:100F8000A8018091A7018823C1F0809101018111FE
:100F900016C069E371E0CE0101960E94FB03BE0119
:100FA0006F5F7F4F86E592E00E941F0389819A81DF
:100FB0000E948E0A1093010102C0109201018091DB
:100FC000B1019091B201892B29F01093A6011093E1
:100FD000A50126C08091A501882369F01092A50182
:100FE0000E94E0016093A1017093A2018093A3018C
:100FF0009093A40115C08091A601882389F0609187
:10100000A1017091A2018091A3019091A40124EF0C
:1010100031E040E050E00E94960281111092A6015A
:101020008091A601882321F18091A001882399F065
:1010300060919C0170919D0180919E0190919F0112
:1010400028EC30E040E050E00E9496028823A1F0B6
:1010500010939B0111C01093A0010E94E0016093C6
:101060009C0170939D0180939E0190939F0104C009
:1010700010929B011092A00180919B01882361F046
:1010800080919A01882319F01092990109C0109358
:10109000990110939A0104C01092990110929A013B
:1010A000009199010093A70166E572E08CE592E05A
:1010B0000E94DA03002399F080919801811111C0F8
:1010C000409160025091610260915C0270915D02FA
:1010D00083EB91E00E948E001093980102C0109261
:1010E00098018091A701882399F08091970181113F
:1010F00011C0409160025091610260915C02709158
:101100005D0288E692E00E948E001093970102C073
:1011100010929701809196018823C1F0809100017F
:10112000811116C069E371E0CE0101960E94FB03B4
:10113000BE016F5F7F4F80E592E00E941F038981AF
:101140009A810E948E0A1093000102C01092000141
:101150008091AF019091B001892B29F010939501F6
:101160001093940126C080919401882369F0109215
:1011700094010E94E001609390017093910180932B
:1011800092019093930115C080919501882389F075
:1011900060919001709191018091920190919301E1
:1011A00024EF31E040E050E00E949602811110925D
:1011B000950180919501882321F180918F018823E9
:1011C00099F060918B0170918C0180918D019091CB
:1011D0008E012CE231E040E050E00E94960288232C
:1011E000A1F010938A0111C010938F010E94E001B9
:1011F00060938B0170938C0180938D0190938E018D
:1012000004C010928A0110928F0180918A01882374
:1012100061F080918901882319F01092880109C03A
:10122000109388011093890104C0109288011092D4
:101230008901009188010093960160E572E082E6E1
:1012400092E00E94DA030023D9F080918701811196
:1012500019C04091660250916702609162027091DC
:10126000630283EB91E00E948E0042E050E067E36E
:1012700071E083EB91E00E948E001093870102C021
:10128000109287010E948A0100CE809150029091B5
:1012900051020E948E0A80915602909157020E943C
:1012A0008E0A80915C0290915D020E948E0A80916C
:1012B0006202909163020E948E0A8EE191E0909307
:1012C0006902809368028091850190918601885619
:1012D000924071F4E0917B02F0917C0290818091C8
:1012E0007D0280958923808310928601109285016A
:1012F00008952F923F924F925F926F927F928F92BA
:101300009F92AF92BF92CF92DF92EF92FF920F9394
:101310001F93CF93DF93CDB7DEB7CA1BDB0B0FB69E
:10132000F894DEBF0FBECDBF09942A88398848885B
:101330005F846E847D848C849B84AA84B984C884F1
:10134000DF80EE80FD800C811B81AA81B981CE0FE8
:10135000D11D0FB6F894DEBF0FBECDBFED010895CD
:1013600097FB072E16F4009407D077FD09D00E9452
:10137000DF0907FC05D03EF4909581959F4F0895B5
:10138000709561957F4F08952A0D3B1D4C1D5D1D85
:101390006E1D7F1D801F911F08952A193B094C095E
:1013A0005D096E097F09800B910B08952A153B0595
:1013B0004C055D056E057F05800791070895AA1B02
:1013C000BB1B51E107C0AA1FBB1FA617B70710F030
:1013D000A61BB70B881F991F5A95A9F78095909562
:1013E000BC01CD010895EE0FFF1F0590F491E02D93
:1013F0000994CF93DF938230910510F482E090E05E
:10140000E0918902F0918A0220E030E0C0E0D0E073
:10141000309711F14081518148175907C0F04817A2
:10142000590761F482819381209719F09B838A8305
:101430002BC090938A028093890226C02115310522
:1014400019F04217530718F49A01BE01DF01EF01AA
:101450000280F381E02DDCCF2115310509F1281B35
:10146000390B2430310590F412968D919C9113978D
:101470006115710521F0FB019383828304C0909371
:101480008A0280938902FD01329644C0FD01E20F79
:10149000F31F81939193225031092D933C933AC0CD
:1014A0002091870230918802232B41F4209104017E
:1014B0003091050130938802209387022091020128
:1014C000309103012115310541F42DB73EB740910C
:1014D000060150910701241B350BE0918702F09122
:1014E0008802E217F307A0F42E1B3F0B28173907D9
:1014F00078F0AC014E5F5F4F2417350748F04E0F70
:101500005F1F50938802409387028193919302C09A
:10151000E0E0F0E0CF01DF91CF9108950F931F93AA
:10152000CF93DF93009709F48CC0FC0132971382AC
:1015300012820091890210918A020115110581F42D
:1015400020813181820F931F209187023091880280
:101550002817390779F5F0938802E093870271C064
:10156000D80140E050E0AE17BF0750F412962D911D
:101570003C911397AD012115310509F1D901F3CF44
:101580009D01DA013383228360817181860F971F69
:101590008217930769F4EC0128813981260F371FE0
:1015A0002E5F3F4F318320838A819B819383828387
:1015B000452B29F4F0938A02E093890242C01396E6
:1015C000FC93EE931297ED01499159919E01240FDE
:1015D000351FE217F30771F480819181840F951F05
:1015E000029611969C938E938281938113969C937D
:1015F0008E931297E0E0F0E0D80112968D919C91C5
:101600001397009719F0F8018C01F6CF8D919C91FA
:1016100098012E5F3F4F820F931F209187023091D8
:1016200088022817390769F4309729F410928A0242
:101630001092890202C013821282109388020093D2
:101640008702DF91CF911F910F910895A0E0B0E044
:10165000ECE2FBE00C947D09EC01009721F4CB0156
:101660000E94F909B8C0FC01E60FF71F9C01225047
:101670003109E217F30708F4ACC0D9010D911C91B0
:10168000119706171707B0F00530110508F49FC031
:10169000C80104978617970708F499C002501109EA
:1016A000061B170B019311936D937C93CF010E943E
:1016B0008E0A8DC05B01A01AB10A4C01800E911EEA
:1016C000A0918902B0918A0240E050E0E12CF12C17
:1016D000109709F44AC0A815B905D1F56D907C9012
:1016E0001197630182E0C80ED11CCA14DB0480F19B
:1016F000A3014A195B096A0182E0C80ED11C129647
:10170000BC9012971396AC91B5E0CB16D10440F083
:10171000B282A38351834083D9016D937C930AC025
:101720000E5F1F4FC301800F911FF90191838083CA
:10173000EB2DFA2FE114F10431F0D7011396FC934D
:10174000EE93129744C0F0938A02E09389023FC05F
:101750008D919C9111974817590708F4AC017D01B0
:1017600012960D90BC91A02DB3CF809187029091DD
:10177000880288159905E1F446175707C8F4809147
:10178000020190910301009741F48DB79EB74091FB
:10179000060150910701841B950BE817F907C8F45F
:1017A000F0938802E0938702F901718360830FC090
:1017B000CB010E94F9097C01009759F0A801BE01F4
:1017C0000E94F50BCE010E948E0AC70104C0CE0113
:1017D00002C080E090E0CDB7DEB7EEE00C9499094E
:1017E00081E090E0F8940C94050CFB01DC0102C050
:1017F00001900D9241505040D8F70895FB01DC0153
:1018000001900D920020E1F7089510E0C2E6D0E0CB
:1018100004C0FE010E94F3092196C336D107C9F71F
:04182000F894FFCF6A
:10182400010100008B0280000000000021018E00F5
:10183400B9006801EA00C800DC00000000000502ED
:101844008E009302040259027102EC015445535470
:0A185400205541525431000D0A00E6
:00000001FF
