:100000000C945D000C9485000C9485000C94850084
:100010000C9485000C9485000C9485000C9485004C
:100020000C9485000C9485000C9485000C9485003C
:100030000C9485000C9485000C9485000C9485002C
:100040000C9409020C9485000C94D7010C94B10116
:100050000C9485000C9485000C9485000C9485000C
:100060000C9485000C9485000000000024002700FB
:100070002A0000000000250028002B0004040404CE
:100080000404040402020202020203030303030342
:10009000010204081020408001020408102001021F
:1000A00004081020000000080002010000030407FB
:1000B0000000000000000000790411241FBECFEFF3
:1000C000D8E0DEBFCDBF11E0A0E0B1E0EAE8F9E0A2
:1000D00002C005900D92A432B107D9F721E0A4E245
:1000E000B1E001C01D92AF3DB207E1F710E0CDE5F0
:1000F000D0E004C02197FE010E94B804CC35D1079E
:10010000C9F70E9453020C94C3040C940000CF92D0
:10011000DF92EF92FF920F931F93CF93DF936C01C7
:100120007A018B01C0E0D0E0CE15DF0589F0D8015F
:100130006D918D01D601ED91FC910190F081E02D42
:10014000C6010995892B11F47E0102C02196ECCFDE
:10015000C701DF91CF911F910F91FF90EF90DF903A
:10016000CF900895089580E090E00895FC01538DAC
:10017000448D252F30E0842F90E0821B930B541781
:1001800010F0CF96089501970895FC01918D828D0E
:10019000981761F0828DDF01A80FB11D5D968C91DB
:1001A000928D9F5F9F73928F90E008958FEF9FEFE6
:1001B0000895FC01918D828D981731F0828DE80FA2
:1001C000F11D858D90E008958FEF9FEF0895FC015C
:1001D000918D228D892F90E0805C9F4F821B910929
:1001E0008F739927089582E491E00E94E70021E04F
:1001F000892B09F420E0822F0895FC01848DDF0112
:10020000A80FB11DA35ABF4F2C91848D90E0019689
:100210008F739927848FA689B7892C93A089B18978
:100220008C9180648C93938D848D981306C0028882
:10023000F389E02D80818F7D80830895EF92FF9276
:100240000F931F93CF93DF93EC0181E0888F9B8DF9
:100250008C8D981305C0E889F989808185FD24C0BB
:10026000F62E0B8D10E00F5F1F4F0F731127E02E3E
:100270008C8DE8120CC00FB607FCFACFE889F9891B
:10028000808185FFF5CFCE010E94FD00F1CF8B8DDF
:10029000FE01E80FF11DE35AFF4FF0820B8FEA8950
:1002A000FB898081806207C0EE89FF896083E889CD
:1002B000F98980818064808381E090E0DF91CF9133
:1002C0001F910F91FF90EF900895CF93DF93EC0172
:1002D000888D8823C9F0EA89FB89808185FD05C066
:1002E000A889B9898C9186FD0FC00FB607FCF5CFA0
:1002F000808185FFF2CFA889B9898C9185FFEDCFE8
:10030000CE010E94FD00E7CFDF91CF91089580E0FC
:1003100090E0892B29F00E94F30081110C940000D9
:1003200008952FB7F8946091290170912A01809166
:100330002B0190912C012FBF0895009769F0FC01CB
:1003400001900020E9F73197AF01481B590BBC0120
:1003500082E491E00C94870080E090E008950E9490
:10036000BE041F920F920FB60F9211242F933F934A
:100370004F935F936F937F938F939F93AF93BF93AD
:10038000EF93FF9382E491E00E94FD00FF91EF91D3
:10039000BF91AF919F918F917F916F915F914F919D
:1003A0003F912F910F900FBE0F901F9018951F92A5
:1003B0000F920FB60F9211242F938F939F93EF9369
:1003C000FF93E0915201F09153018081E091580137
:1003D000F091590182FD12C0908180915B018F5F85
:1003E0008F7320915C01821751F0E0915B01F0E086
:1003F000EE5BFE4F958F80935B0101C08081FF9182
:10040000EF919F918F912F910F900FBE0F901F90A2
:1004100018951F920F920FB60F9211242F933F93AE
:100420008F939F93AF93BF938091290190912A015D
:10043000A0912B01B0912C013091280123E0230FD2
:100440002D3720F40196A11DB11D05C026E8230F0C
:100450000296A11DB11D209328018093290190933C
:100460002A01A0932B01B0932C018091240190913B
:100470002501A0912601B09127010196A11DB11D72
:100480008093240190932501A0932601B093270126
:10049000BF91AF919F918F913F912F910F900FBE80
:1004A0000F901F901895CF93DF93CDB7DEB72897A5
:1004B0000FB6F894DEBF0FBECDBF789484B58260CE
:1004C00084BD84B5816084BD85B5826085BD85B5F8
:1004D000816085BD80916E00816080936E00109276
:1004E00081008091810082608093810080918100F1
:1004F0008160809381008091800081608093800082
:100500008091B10084608093B1008091B0008160DF
:100510008093B00080917A00846080937A0080910B
:100520007A00826080937A0080917A008160809363
:100530007A0080917A00806880937A001092C100DE
:10054000E0915201F091530182E08083E0914E01ED
:10055000F0914F011082E0915001F091510180E142
:10056000808310925A01E0915601F091570186E084
:100570008083E0915401F0915501808180618083F6
:10058000E0915401F0915501808188608083E09171
:100590005401F0915501808180688083E09154017D
:1005A000F091550180818F7D8083EDE9F0E0249109
:1005B000E9E8F0E08491882399F090E0880F991F92
:1005C000FC01E859FF4FA591B491FC01EE58FF4F93
:1005D000859194918FB7F8949C91292B2C938FBF80
:1005E0008091410181110FC0F1E0F0934101F0933E
:1005F00040010E94910160933C0170933D01809302
:100600003E0190933F0180914101882309F458C035
:10061000C0903C01D0903D01E0903E01F0903F0140
:100620000E9491016C157D058E059F0558F02AEFFB
:10063000C20ED11CE11CF11C6C157D058E059F05B9
:1006400078F53EC01B012C01A701960160E070E027
:10065000CB01C9823A834B835C836D837E838F8316
:10066000988729EF30E040E050E061E070E080E002
:1006700090E0A980BA80CB80DC80E12CF12C00E0F6
:1006800010E00E94A60459016A017B018C019101CE
:10069000A20160E070E080E090E00E94AF0484F08E
:1006A0000E94910160933C0170933D0180933E0153
:1006B00090933F018091400131E083278093400176
:1006C00020914001E1EBF0E09491EDE9F0E08491BC
:1006D000E9E8F0E03491332309F43DC0992339F17E
:1006E000933091F038F49130A9F0923001F594B53F
:1006F0009F7D12C0973091F09830A1F09430B9F4FA
:10070000909180009F7D03C0909180009F7790938F
:1007100080000DC094B59F7794BD09C09091B00042
:100720009F7703C09091B0009F7D9093B000E32F1E
:10073000F0E0EE0FFF1FEE58FF4FA591B4919FB769
:10074000F894211104C02C918095822302C02C9131
:10075000822B8C939FBF90914001992351F08091FF
:100760003B01811106C080913A01F1E08F2780930F
:100770003A0190933B0180913A0180933901809135
:100780003801882309F44DC0C0903401D090350160
:10079000E0903601F09037010E9491016C157D05C3
:1007A0008E059F0560F028EBC20E2BE0D21EE11CE7
:1007B000F11C6C157D058E059F0578F53FC01B016A
:1007C0002C01A701960160E070E0CB01C9823A8359
:1007D0004B835C836D837E838F83988727EB3BE01D
:1007E00040E050E061E070E080E090E0A980BA80F5
:1007F000CB80DC80E12CF12C00E010E00E94A6040C
:1008000059016A017B018C019101A20160E070E055
:1008100080E090E00E94AF048CF031E0309333012F
:100820000DC041E0409338010E9491016093340172
:1008300070933501809336019093370120913301F5
:100840002223A9F080913901882389F08091320117
:1008500081110FC0809130019091310101969093E8
:1008600031018093300151E05093320102C0109267
:10087000320180912F01882321F0109231011092D2
:10088000300181E0409130015091310145305105F6
:100890000CF480E080932F01222381F080913901B4
:1008A000882361F080912E0181110AC082E191E0DC
:1008B0000E949D0161E060932E0102C010922E0102
:1008C00080912F01882381F080912D0181110EC02C
:1008D0008FE191E00E949D0181E291E00E949D01E3
:1008E00071E070932D0102C010922D010E948701CA
:1008F00077CEE2E4F1E01382128288EE93E0A0E08A
:10090000B0E084839583A683B78384E091E09183EC
:10091000808385EC90E09587848784EC90E09787CE
:10092000868780EC90E0918B808B81EC90E0938BBC
:10093000828B82EC90E0958B848B86EC90E0978B99
:10094000868B118E128E138E148E08952A193B09F0
:100950004C095D096E097F09800B910B08952A15DA
:100960003B054C055D056E057F05800791070895E1
:10097000EE0FFF1F0590F491E02D099481E090E0C7
:0A098000F8940C94C304F894FFCF20
:10098A00000000001E018700B6006501E700C500EF
:10099A00D900426C696E6B31202831736563292056
:0409AA00000D0A0032
:00000001FF
